:1000000072C00000A1C000009FC000009DC00000A1
:100010009BC0000099C0000097C0000095C0000080
:1000200093C0000091C000008FC000008DC0000090
:100030008BC0000089C0000087C0000085C00000A0
:1000400083C0000081C000007FC000007DC00000B0
:100050007BC0000079C0000077C000000C94320C17
:1000600073C000000C94A60C0C947C0C6DC00000B6
:100070006BC0000069C0000067C0000065C00000E0
:1000800063C0000061C000005FC000005DC00000F0
:100090005BC0000059C0000057C0000055C0000000
:1000A00053C0000051C000004FC000004DC0000010
:1000B0004BC0000049C0000047C0000045C0000020
:1000C00043C0000041C000003FC000003DC0000030
:1000D0003BC0000039C0000037C0000035C0000040
:1000E00033C00000DC0C11241FBECFEFD1E2DEBF15
:1000F000CDBF00E00CBF13E0A0E0B2E0E2E9F2E225
:1001000000E00BBF02C007900D92A83BB107D9F7E2
:1001100029E0A8EBB3E001C01D92A232B207E1F7DB
:1001200010E0C3E7D0E000E006C021970109802F6E
:10013000FE010E94220FC237D10780E00807A9F70D
:100140000E94A40D0C9447115BCF3FB7F8948091A7
:10015000BD039091BE03A091BF03B091C00326B52B
:10016000A89B05C02F3F19F00196A11DB11D3FBFEF
:10017000BA2FA92F982F8827820F911DA11DB11D7D
:10018000BC01CD0142E0660F771F881F991F4A9579
:10019000D1F708952FB7F8946091B9037091BA031D
:1001A0008091BB039091BC032FBF08950F931F93C1
:1001B000CF93DF93CDB7DEB72A970FB6F894DEBFA3
:1001C0000FBECDBF8C018BE492E09A8389831B82A2
:1001D0001C821D821E821F82188619861A86D801EB
:1001E000ED91FC910190F081E02DAE014F5F5F4FEA
:1001F0006AE070E0C8011995CDDFF801608771876A
:10020000828793872A960FB6F894DEBF0FBECDBFC4
:10021000DF91CF911F910F910895CF92DF92EF92CE
:10022000FF920F931F93CF93DF936C017A018B01A1
:10023000C0E0D0E0CE15DF0581F0D8016D918D01D1
:10024000D601ED91FC910190F081E02DC601199548
:10025000892B11F02196EECF7E01C701DF91CF915E
:100260001F910F91FF90EF90DF90CF900895089528
:1002700080E090E00895FC01538D448D252F30E0FF
:10028000842F90E0821B930B541710F0CF960895A3
:1002900001970895FC01918D828D981761F0828DF0
:1002A000DF01A80FB11D5D968C91928D9F5F9F73AA
:1002B000928F90E008958FEF9FEF0895FC01918D4C
:1002C000828D981731F0828DE80FF11D858D90E0B9
:1002D00008958FEF9FEF0895FC01918D228D892F56
:1002E00090E0805C9F4F821B91098F73992708953E
:1002F00081EC93E0F1DF21E0892B09F420E0822FEB
:100300000895FC01848DDF01A80FB11DA35ABF4FD2
:100310002C91848D90E001968F739927848FA68904
:10032000B7892C93A089B1898C91837080648C9358
:10033000938D848D981306C00288F389E02D808107
:100340008F7D80830895EF92FF920F931F93CF9339
:10035000DF93EC0181E0888F9B8D8C8D981305C015
:10036000E889F989808185FD25C0F62E0B8D10E086
:100370000F5F1F4F0F731127E02E8C8DE8120BC0FB
:100380000FB607FCFACFE889F989808185FFF5CFA0
:10039000CE01B7DFF2CF8B8DFE01E80FF11DE35ADE
:1003A000FF4FF0829FB7F8940B8FEA89FB89808119
:1003B00080620AC09FB7F894EE89FF896083E8895C
:1003C000F98980818370806480839FBF81E090E0A1
:1003D000DF91CF911F910F91FF90EF900895CF93F0
:1003E000DF93EC01888D8823C1F0EA89FB89808145
:1003F00085FD05C0A889B9898C9186FD0EC00FB610
:1004000007FCF5CF808185FFF2CFA889B9898C914F
:1004100085FFEDCFCE0175DFE8CFDF91CF91089555
:1004200080E090E0892B19F063DF811125C080E026
:1004300090E0892B41F080E090E0892B21F00E9430
:10044000000081111CC080E090E0892B41F080E029
:1004500090E0892B21F00E940000811113C080E000
:1004600090E0892BA1F080E090E0892B81F00E9440
:10047000000081110AC008950E940000D8CF0E9498
:100480000000E1CF0E940000EACF0C940000089524
:100490008A579B4FFC0180810895AF92BF92CF9203
:1004A000DF92EF92FF920F931F93CF93DF9300D0D1
:1004B0001F921F92CDB7DEB7643671053CF0FC0188
:1004C000EA57FB4F2081222309F477C0DA017B0130
:1004D0008C01BC01615E7D4FED91FC910190F0813A
:1004E000E02DCA011995680128EEC21A2DEFD20A33
:1004F0002FEFD6012C93F801E75EFD4F2EEF2083FE
:1005000031968083319690833196292F280F20953C
:1005100020833196E0821696FC9245E050E020E080
:1005200030E0DC011696A417B50734F06191260F70
:10053000311D4F5F5F4FF7CF7C01B8E0EB0EF11C30
:10054000800F911FFC01E15EFD4F20952083E1E0CB
:10055000EE16E2E0FE06BCF45601C5018C199D09B9
:100560008E159F056CF5D80112968D919C9113976D
:10057000F50161915F01DC01ED91FC910190F08149
:10058000E02D1995EACF8FE392E09A83898383E087
:100590008B8387E892E09D838C83D801ED91FC9159
:1005A0000190F081E02DAE014F5F5F4F67E070E09A
:1005B000C80119958FEF9FEF04C080E090E001C063
:1005C000C7010F900F900F900F900F90DF91CF9178
:1005D0001F910F91FF90EF90DF90CF90BF90AF9061
:1005E0000895CF92DF92EF92FF92FC011082118268
:1005F00012821382DB0120E030E04D9150E0022EA8
:1006000002C0440F551F0A94E2F7052E000C660B3A
:10061000770BC080D180E280F3804C295D296E2960
:100620007F294083518362837383285F3F4F203249
:10063000310519F7FF90EF90DF90CF900895CF929A
:10064000DF92EF92FF9220E030E06A017B01022E00
:1006500004C0F694E794D794C7940A94D2F7FC01A7
:10066000C192CF01285F3F4F2032310571F7FF90D3
:10067000EF90DF90CF90089580EC92E0089581EEA6
:1006800092E008954F925F926F927F928F929F9225
:10069000AF92BF92EF92FF920F931F93CF93DF938E
:1006A00000D01F92CDB7DEB77C018B01CE01019641
:1006B00098DF89819A81AB81BC814C015D0124E086
:1006C000820E911CA11CB11CA8014D5F5F4FFA0165
:1006D00024E030E02901612C712C481459046A048B
:1006E0007B0428F4618161932F5F3F4FF3CFF801C2
:1006F000E80FF91F1382F7015383428304960F908A
:100700000F900F900F90DF91CF911F910F91FF905D
:10071000EF90BF90AF909F908F907F906F905F9081
:100720004F90089581EF92E0089583E192E008955B
:1007300082E193E0089583E393E008954F925F92FE
:100740006F927F928F929F92AF92BF92EF92FF92A1
:100750000F931F93CF93DF9300D01F92CDB7DEB7D7
:100760007C018B01FB018191BF01F7018283CE01E6
:10077000019637DF89819A81AB81BC814C015D0193
:10078000F5E08F0E911CA11CB11CA8014C5F5F4FBE
:10079000FA0125E030E02901612C712C481459043C
:1007A0006A047B0428F4618161932F5F3F4FF3CF8C
:1007B000F801E80FF91F1482F7015483438305966B
:1007C0000F900F900F900F90DF91CF911F910F918D
:1007D000FF90EF90BF90AF909F908F907F906F9021
:1007E0005F904F90089586E493E0089587E693E044
:1007F00008954F925F926F927F928F929F92AF92E5
:10080000BF92CF92DF92EF92FF920F931F93CF93FD
:10081000DF93CDB7DEB72C970FB6F894DEBF0FBECF
:10082000CDBF7C018B01DB018C9190E0F7019383BC
:10083000828311962C91922B938382836E5F7F4FDC
:10084000CE010196CEDE89809A80AB80BC802401E7
:100850003501F6E04F0E511C611C711C98012B5F95
:100860003F4FF90186E090E0AC0160E070E0441594
:1008700055056605770520F4418141930196F4CF33
:10088000F801E80DF91D1582D70115963C932E93BA
:100890001497B4016A5F7F4F600F711FCE010596F8
:1008A000A0DEBAE08B0E911C4D805E806F80788454
:1008B000A401092C000C660B770B440D551D661D19
:1008C000771DD801A80DB91DCD01801B910B5C01CE
:1008D000C12CD12CA416B506C606D70628F48D91D6
:1008E000FD0132978083F0CF5401A40CB51CB801F0
:1008F0006A0D7B1DFB0131971082C4010197800FA7
:10090000911FF70197838683CE0109966ADE9501D0
:100910002C5F3F4F89859A85AB85BC852901032EC5
:10092000000C66087708480E591E6A1E7B1EF501EA
:100930003396E00FF11FA9014A01A12CB12C8414B8
:100940009504A604B70428F4618161934F5F5F4F5B
:10095000F3CF820F931FF801E80FF91FDF01119702
:100960001C9221503109020F131FD70119961C93B5
:100970000E9318972181428150E060E070E0BA0147
:1009800055274427522B2081422B2381722BF701BC
:10099000428753876487758704962C960FB6F89420
:1009A000DEBF0FBECDBFDF91CF911F910F91FF90A2
:1009B000EF90DF90CF90BF90AF909F908F907F90FF
:1009C0006F905F904F90089580E893E0089581EADA
:1009D00093E00895FC01DB014C9150E060E070E091
:1009E000428353836483758311968C911197582B9E
:1009F000428353836483758312968C911297682B7C
:100A0000428353836483758313968C911397782B59
:100A1000428353836483758314964C91149750E0FA
:100A200060E070E0468357836087718715968C91EC
:100A30001597582B468357836087718716968C913C
:100A40001697682B468357836087718717968C911A
:100A5000782B468357836087718788E090E00895FC
:100A6000DC01FB0112968C911297808313968C9176
:100A70001397818314968C911497828315968C9189
:100A80001597838316968C911697848317968C916D
:100A90001797858318968C911897868319968C9151
:100AA000878388E090E008950E941910EF92FF92EA
:100AB0000F931F93CF93DF937C018B01DC01129680
:100AC000ED91FC911397EF0109900020E9F7219730
:100AD000CE1BDF0BAE0160E070E0C801B0DDF701B6
:100AE00062817381AE01C80104960E941D10CE017F
:100AF0000496DF91CF911F910F91FF90EF90089591
:100B00004F925F926F927F92AF92BF92CF92DF929D
:100B1000EF92FF920F931F93CF93DF93EC018B0122
:100B20008A81FB0180838B8181838C8182838D818B
:100B30008383DB0140E050E0BA01E4E0F0E014968A
:100B4000CA80DB80EC80FD80CF0104964C155D05EA
:100B50006E057F05C8F42A853B85E20FF31F3497A5
:100B6000D080F18032812381DC921196FC92119722
:100B700012963C93129713962C931397FC014F5F98
:100B80005F4F6F4F7F4FDBCF5F01A00EB11E2C85F3
:100B9000F50120832D8521832E8522832F852383B4
:100BA000D50140E050E0BA01CC84DD84EE84FF84BE
:100BB0009C012C5F3F4F4C155D056E057F05F8F4D9
:100BC000CD018A199B09EC88FD888E0D9F1DFC01C3
:100BD000D080E180F28083811496DC921497159680
:100BE000EC9215971696FC92169717968C9317977A
:100BF000C9014F5F5F4F6F4F7F4F1496D5CFF801FC
:100C0000E80FF91F8E8980838F898183888D828385
:100C1000898D83837901A12CB12C412C512C320177
:100C20008E899F89A88DB98D481659066A067B065C
:100C300078F5EC8DFD8DEA0DFB1DA081B181FD01E4
:100C400001900020E9F731976F01CA1ADB0AA6016B
:100C500060E070E0C8018E0D9F1DF1DCF4E0EF0E46
:100C6000F11CEC8DFD8DEA0DFB1D60817181A601EB
:100C7000C8018E0D9F1D0E941D10EC0CFD1C8FEFF6
:100C8000481A580A680A780AE2E0AE0EB11CC8CFCA
:100C9000C701DF91CF911F910F91FF90EF90DF90EF
:100CA000CF90BF90AF907F906F905F904F900895DE
:100CB000EF92FF920F931F93CF93DF938C017B01F1
:100CC000DC0112962C911297FB012193CF01139610
:100CD000ED91FC911497EF0109900020E9F721971D
:100CE000CE1BDF0BAE0160E070E0A9DCD8011396EB
:100CF0006D917C911497AE01C70105960E941D105D
:100D0000CE010596DF91CF911F910F91FF90EF904B
:100D10000895CF92DF92EF92FF920F931F93CF939C
:100D2000DF937C018B01DC0112968C911297FB0101
:100D3000808313968C91139781831496ED91FC9187
:100D40001597EF0109900020E9F72197CE1BDF0BE3
:100D5000AE0160E070E0C801029671DCD701149624
:100D60006D917C911597AE01C80106960E941D10E9
:100D7000CE010696F701A681B781FD010190002002
:100D8000E9F731976F01CA1ADB0AA60160E070E04B
:100D9000800F911F54DC2A96D70116966D917C9195
:100DA0001797A601C8018C0F9D1F0E941D10CC0D26
:100DB000DD1DD7011896ED91FC911997DF010D907B
:100DC0000020E9F711976D01CE1ADF0AA60160E055
:100DD00070E0C8018C0F9D1F32DC2496F7016085FE
:100DE0007185A601C8018C0F9D1F0E941D10C601B0
:100DF0008C0F9D1FD7011A966C911A971B964C91D8
:100E00001B971C963C911C971D962C91F801E80F9E
:100E1000F91F60834183328323830496DF91CF914E
:100E20001F910F91FF90EF90DF90CF9008952F9238
:100E30003F924F925F926F927F928F929F92AF926A
:100E4000BF92CF92DF92EF92FF920F931F93CF93B7
:100E5000DF93CDB7DEB760970FB6F894DEBF0FBE55
:100E6000CDBF8C016B01DB018D909D90AD90BC904E
:100E7000FC0182819381A481B58188159905AA0519
:100E8000BB0568F4B401660F771F660F771F828574
:100E90009385EFD7D8011B969C938E931A97F801F0
:100EA00082829382A482B5829601812C912C540176
:100EB00044E050E0B8016A5F7F4F2C5F3F4FF8017C
:100EC00082819381A481B581FA0134961F0188162D
:100ED0009906AA06BB0650F5D9011196FC90119708
:100EE00012968C9190E0A0E0B0E0DC019927882771
:100EF0009F29F901F0808F29F380BF29F8018683AB
:100F00009783A087B187DA01A10114978285938521
:100F1000A80FB91F84E0FB0101900D928A95E1F7BB
:100F2000FFEF8F1A9F0AAF0ABF0AC7CF4601840E90
:100F3000951ED4018C9111969C91119712964C900C
:100F40001297512C612C712C320155244424592ABA
:100F5000482A13968C91782A5F01F801848595853B
:100F6000A685B78584159505A605B70568F4B20171
:100F7000660F771F660F771F848995897AD7D80106
:100F800055969C938E935497F801448655866686B1
:100F90007786C401412C512C32019801205F3F4FCC
:100FA000D8011C964D915D916D917C911F97F50133
:100FB0003496441655066606770698F5DC011596B4
:100FC000FC90159716964C91169750E060E070E0F3
:100FD000BA01552744275F291496FC9014974F298E
:100FE0001796FC907F29D80150964D935D936D9391
:100FF0007C9353975F01AC014819590954960D90A1
:10100000BC91A02DA40FB51F44E0F90101900D92F1
:101010004A95E1F7BFEF4B1A5B0A6B0A7B0A04960D
:10102000BFCFD601AA0DBB1D8C9111969C91119733
:1010300012968C901297912CA12CB12C54019924CA
:101040008824992A882A13968C91B82A7F01F8015E
:1010500086899789A08DB18D88159905AA05BB054C
:1010600058F4B401660F771F848D958D02D7D8018F
:101070005D969C938E935C97F801868A978AA08EE2
:10108000B18E212C312C812C912C54019801265E9B
:101090003F4F3A872987F80186899789A08DB18DBE
:1010A00088169906AA06BB0608F05EC0B6016E0D4A
:1010B0007F1DCE01019695DA97012C5F3F4F388B4B
:1010C0002F8749815A816B817C81C901330FAA0B1B
:1010D000BB0B2C013D01440E551E661E771E4B8630
:1010E0005C866D867E8623E0E20EF11CF601EE0D35
:1010F000FF1D2F853889C901A0E0B0E04B845C84D6
:101100006D847E8484159505A605B70528F4A18114
:10111000A1932F5F3F4FEFCF6F847888460D571D07
:10112000F601E40FF51F31971082C30101978C0D72
:101130009D1DD8015B969C938E935A977A015C967D
:10114000ED91FC915D97E20DF31DA985BA858D9116
:101150009C9191838083BFEF8B1A9B0AAB0ABB0AD9
:10116000E2E02E0E311C97CFC70160960FB6F894BF
:10117000DEBF0FBECDBFDF91CF911F910F91FF90CA
:10118000EF90DF90CF90BF90AF909F908F907F9027
:101190006F905F904F903F902F9008952F923F92C5
:1011A0004F925F926F927F928F929F92AF92BF9277
:1011B000CF92DF92EF92FF920F931F93CF93DF9323
:1011C000CDB7DEB7A6970FB6F894DEBF0FBECDBF82
:1011D0008C010E94CA004B015C01980125573B4FCE
:1011E0003E8B2D8BF90180819181A281B381A50174
:1011F0009401281B390B4A0B5B0BDA01C901893FAB
:101200009A42A105B10510F035971082180144E803
:10121000241A4BEF340AD1018D919C91892B79F0DE
:10122000F801E157FB4F80819181A281B38188153C
:101230009905AA05BB0518F4F101118210829801E5
:101240002C573B4F3A8B298BA80140585B4F5C8B46
:101250004B8BC8014896988F8F8BD801AA57BB4FEC
:10126000BC8FAB8FF801EC56FB4FFE8FED8F215FEB
:101270003F4F38A32F8F42505109588B4F878659C3
:101280009B4F9A8F898F1996BAA3A9A3A5019401A0
:101290002C5E3F4F4F4F5F4F2BA33CA34DA35EA34C
:1012A000F80184899589A689B789892B8A2B8B2B8C
:1012B00081F4D80112968D919C911397DC01ED91E8
:1012C000FC910284F385E02D19959C0197FF14C0D1
:1012D00084C20E94CA00DC01CB0188199909AA09BD
:1012E000BB09F801C488D588E688F788C816D906EE
:1012F000EA06FB06F0F698C2A989BA898D919C91FD
:101300001197820F931F8D939C93F101408151811E
:1013100047305105D9F4A98DBA8D8D919C911197C3
:10132000AC014F5F5F4F4D935C93F801E80FF91FDD
:10133000208FEF85F8898081918101979183808347
:10134000892B09F0ADCF88E090E032C041155105FE
:1013500039F52F3F310589F481E090E0F101918367
:1013600080832BA13CA14DA15EA1A9A1BAA12D937F
:101370003D934D935C93139793CF0E94CA00DC0179
:10138000CB0188199909AA09BB0989389341A1059C
:10139000B10508F485CFF801EA57FB4F108244C22B
:1013A00041305105A9F42E3F310531F482E090E03F
:1013B000D1018D939C9374CFF10111821082AB8D7A
:1013C000BC8D8C9181116CCFC8010E94D60068CF72
:1013D0004230510591F4EF85F88931832083A98D3E
:1013E000BA8D1D921C9283E090E0F101918380837D
:1013F000A989BA892D933C9353CF4330510569F4A1
:10140000322F2227EF85F88980819181280F391F9B
:101410003183208384E090E0CBCF4430510579F4D0
:1014200060E071E0BCD48F3F910531F485E090E03D
:10143000F1019183808334CF1182108231CF453006
:10144000510571F4EB89FC893183208386E090E0BB
:10145000D1018D939C93E989FA893183208320CF30
:1014600046305105A9F4322F2227AB89BC898D91D2
:101470009C911197280F391F2D933C9387E090E0A2
:10148000F10191838083AF85B8898D919C9158CF6C
:101490004830510509F004CFF1011182108260E05B
:1014A00071E07DD48F3F910509F0FACEAB89BC89FC
:1014B0008D919C91009709F0C6C0C8010E94D6008A
:1014C00083E392E09A8389831C821B828FEB92E0F4
:1014D0009E838D8398878F839A8789871B861C8636
:1014E0001D861E866801B8EECB1ABBEFDB0A7801B9
:1014F000E6EBEE1AEBEFFE0A412C22E0522E612CB5
:10150000712CD601ED91FC913097A9F184819581E0
:101510009C838B83808191819E838D838281938143
:10152000DC01ED91FC910480F581E02D19959887FF
:101530008F83D601ED91FC9182819381DC01ED9145
:10154000FC910680F781E02D19959A8789874B8653
:101550005C866D867E86D601ED91FC9160857185F5
:10156000D801ED91FC910190F081E02DAE014F5F2B
:101570005F4FC8011995B2E0CB0ED11CEC14FD04ED
:1015800009F0BFCF412C92E0592E612C712CF7014C
:10159000A081B1811097E1F112968D919C911397E2
:1015A0009C838B8314968D919C9115979E838D833C
:1015B000ED91FC9111970480F581E02DCD011995F5
:1015C00098878F83D7018D919C91DC01ED91FC91DF
:1015D0000680F781E02D19959A8789874B865C866E
:1015E0006D867E86D801ED91FC91C080D180F70197
:1015F00080819181DC01ED91FC910280F381E02DED
:101600001995AE014F5F5F4FBC01C801F6011995F6
:10161000F2E0EF0EF11CE214F30409F0B8CFF80188
:10162000EA57FB4F81E08083319680829182A282CB
:10163000B382AD89BE898D929D92AD92BC92139773
:101640008FEF9FEFF6C08A30910509F09CC08BE4C4
:1016500092E09A8389831B821C821D821E821F82D4
:10166000188619861A860E94CA00F801C084D1849F
:10167000E284F3849B01AC012C193D094E095F09FA
:1016800069017A016F89788DCE010196A3D9C701CE
:10169000B60128EE33E040E050E094D3CB80DC800C
:1016A000ED80FE80C20ED31EE41EF51ECB82DC82CE
:1016B000ED82FE829B01AC0160E472E48FE090E079
:1016C0005FD3CF80D884E984FA84DC01CB018C0D10
:1016D0009D1DAE1DBF1D8F839887A987BA870E9465
:1016E000CA00CF80D884E984FA8436E3D31A35E679
:1016F000E30A34ECF30A28EE33E040E050E062D332
:1017000029013A019B01AC0160E472E48FE090E0B2
:1017100037D3A7019601261B370B480B590BCA017B
:10172000B901CB80DC80ED80FE8031E0C31AD108A6
:10173000E108F108A701960124193509460957095E
:1017400029013A0120E03AEC4AE95BE33BD373011B
:101750006201C20ED31EE41EF51ED8011C96CD9266
:10176000DD92ED92FC921F97F801608B718B828B5A
:10177000938B0E94CA00AD89BE896D937D938D9332
:101780009C9313978DCD8630910551F46F89788D98
:101790008D8D9E8D4CDB81E0EF8DF8A1808380CD17
:1017A0008B30910521F4AB8DBC8D1C9279CDFC0161
:1017B000EF53FE4FEE0FFF1FE00FF11F808191816D
:1017C000009709F46DCDDC01ED91FC910190F08161
:1017D000E02D6F89788D199563CDF801EA57FB4F9D
:1017E0008081882321F17801B9E7EB1ABBEFFB0A6E
:1017F000F70180819181A281B381A5019401281B09
:10180000390B4A0B5B0BDA01C901853C9940A105F4
:10181000B10568F0C8010E94D600D7018D929D9253
:10182000AD92BC92139703C08EEF9FEF02C080E091
:1018300090E0A6960FB6F894DEBF0FBECDBFDF9145
:10184000CF911F910F91FF90EF90DF90CF90BF90BD
:10185000AF909F908F907F906F905F904F903F9050
:101860002F9008951F920F920FB60F9211242F936D
:101870003F938F939F93AF93BF938091B9039091C0
:10188000BA03A091BB03B091BC033091B80323E02D
:10189000230F2D3720F40196A11DB11D05C026E8A8
:1018A000230F0296A11DB11D2093B8038093B903A5
:1018B0009093BA03A093BB03B093BC038091BD0384
:1018C0009091BE03A091BF03B091C0030196A11DEA
:1018D000B11D8093BD039093BE03A093BF03B0934B
:1018E000C003BF91AF919F918F913F912F910F9026
:1018F0000FBE0F901F9018951F920F920FB60F9268
:1019000011240BB60F922F933F934F935F936F93D6
:101910007F938F939F93AF93BF93EF93FF9381EC4C
:1019200093E00E948101FF91EF91BF91AF919F9150
:101930008F917F916F915F914F913F912F910F9078
:101940000BBE0F900FBE0F901F9018951F920F9215
:101950000FB60F9211240BB60F922F938F939F9374
:10196000EF93FF93E091D103F091D2038081E09156
:10197000D703F091D80382FD12C090818091DA03E1
:101980008F5F8F732091DB03821751F0E091DA03B0
:10199000F0E0EF53FC4F958F8093DA0301C0808114
:1019A000FF91EF919F918F912F910F900BBE0F9010
:1019B0000FBE0F901F9018951092C4031092C3038E
:1019C00088EE93E0A0E0B0E08093C5039093C60357
:1019D000A093C703B093C80387E592E09093C20336
:1019E0008093C10385EC90E09093CE038093CD0368
:1019F00084EC90E09093D0038093CF0380EC90E050
:101A00009093D2038093D10381EC90E09093D40320
:101A10008093D30382EC90E09093D6038093D50318
:101A200086EC90E09093D8038093D7031092DA036A
:101A30001092DB031092DC031092DD0385E792E045
:101A400090936D0480936C0481EC93E090936F0409
:101A500080936E0480E091EEA0E0B0E0809370048B
:101A600090937104A0937204B09373041092F208DF
:101A700089E692E09093010980930009109202098F
:101A800010920309109204091092050910920B0993
:101A900010920A0910920C0910920D0910920E0969
:101AA00010920F091092150910921409109216093C
:101AB00010921709109218091092190910921D0915
:101AC00010921C09E6EBF8E0A4E8B8E01D921D9224
:101AD000EA17FB07D9F788EE98E0119211928E175A
:101AE0009F07D9F7A4E8B4E0E4E8F6E01D92EA170E
:101AF000FB07E1F7119288E0E438F807D9F7109274
:101B000080041092810410928204109283048FE763
:101B100092E090936904809368048FEB92E0909335
:101B20006B0480936A048FEA93E090935F04809340
:101B30005E0488E694E090936104809360041092C0
:101B40006704109266040895789484B5826084BD19
:101B500084B5816084BD85B5826085BD85B58160B1
:101B600085BD80916E00816080936E00109281002F
:101B700080918100826080938100809181008160EA
:101B800080938100809180008160809380008091AB
:101B9000B10084608093B1008091B0008160809337
:101BA000B0008091910082608093910080919100BB
:101BB000816080939100809190008160809390007B
:101BC0008091A10082608093A1008091A10081603A
:101BD0008093A1008091A00081608093A0008091FB
:101BE0002101826080932101809121018160809395
:101BF00021018091200181608093200180917A00F1
:101C0000846080937A0080917A00826080937A0069
:101C100080917A00816080937A0080917A00806858
:101C200080937A001092C10080E092ECA1E0B0E0D5
:101C30008093700490937104A0937204B093730422
:101C4000E0916E04F0916F04A089B18982E08C93D9
:101C5000A485B5851C92A685B78580E18C93108EEE
:101C6000A489B58986E08C93A289B3898C9180611F
:101C70008C93A289B3898C9188608C93A289B38953
:101C80008C9180688C930288F389E02D80818F7D10
:101C900080831092E9081092E8081092EB081092E5
:101CA000EA081092EF081092EE081092ED081092D8
:101CB000EC08E4E8F8E080E090E021913191232BFA
:101CC000C1F4FC01EE0FFF1FEC57F74F2EE534E097
:101CD0003183208383589F4F9093630480936204E1
:101CE0008CE694E09093650480936404C0E0D2E0B5
:101CF00024C001968931910501F7F8CF0E94A50013
:101D0000DC01CB018C199D09AE09BF09883E9340C7
:101D1000A105B10598F3B1E08B1A9108A108B108AB
:101D200028EEC20E23E0D21EE11CF11C81149104A6
:101D3000A104B10419F70E941002D0936B04C09360
:101D40006A048091640490916504609162047091CA
:101D50006304DC01ED91FC910190F081E02D48E6F7
:101D600054E019958CE694E019DA0E94A5006B0105
:101D70007C0188EE882E83E0982EA12CB12CBECF5A
:101D8000DB018F939F9340D0BF91AF91A29F800DB5
:101D9000911DA39F900DB29F900D1124089597FB64
:101DA000072E16F4009406D077FD08D037D007FC34
:101DB00005D03EF4909581959F4F0895709561955B
:101DC0007F4F0895A1E21A2EAA1BBB1BFD010DC077
:101DD000AA1FBB1FEE1FFF1FA217B307E407F507DB
:101DE00020F0A21BB30BE40BF50B661F771F881FB7
:101DF000991F1A9469F760957095809590959B014D
:101E0000AC01BD01CF01089525D0A59F900DB49FD1
:101E1000900DA49F800D911D11240895AA1BBB1B3A
:101E200051E107C0AA1FBB1FA617B70710F0A61BDA
:101E3000B70B881F991F5A95A9F780959095BC01FB
:101E4000CD010895EE0FFF1F881F8BBF0790F691FD
:101E5000E02D1994A29FB001B39FC001A39F700D04
:101E6000811D1124911DB29F700D811D1124911DA2
:101E700008956F927F928F929F92AF92BF92CF926E
:101E8000DF92EF92FF920F931F93CF93DF93009710
:101E900081F4CB01DF91CF911F910F91FF90EF90D3
:101EA000DF90CF90BF90AF909F908F907F906F907A
:101EB000CDC0FC01E60FF71F9C0122503109E2174B
:101EC000F30708F4A5C0EC01D9010D911C911197FD
:101ED00006171707A8F00530110508F497C0C801C8
:101EE00004978617970708F491C002501109061B42
:101EF000170B019311936D937C93CF013FD186C053
:101F00005B01A01AB10A4C01800E911EA09120091C
:101F1000B0912109612C712CE12CF12C109709F45E
:101F200046C08D919C911197A815B905B1F56C012A
:101F300042E0C40ED11CCA14DB0478F14C018A18AB
:101F40009B08640142E0C40ED11C1296BC9012970B
:101F50001396AC91B5E0CB16D10440F0B282A383C6
:101F600091828082D9016D937C9309C00E5F1F4FCF
:101F7000800F911FF90191838083EB2DFA2FE114DB
:101F8000F10431F0D7011396FC93EE9312973EC003
:101F9000F0932109E093200939C06816790608F406
:101FA0003C017D0112960D90BC91A02DB7CF809180
:101FB0001E0990911F0988169906E1F466167706A6
:101FC000C8F480910D0290910E02009741F48DB7F4
:101FD0009EB74091110250911202841B950BE81795
:101FE000F907B0F4F0931F09E0931E09F90171831A
:101FF00060830CC0CB012AD07C01009749F0A80176
:10200000BE011BD0CE01BAD0C70104C0CE0102C0B0
:1020100080E090E0DF91CF911F910F91FF90EF90C2
:10202000DF90CF90BF90AF909F908F907F906F90F8
:10203000089581E090E0F8942AC1FB01DC0102C020
:1020400001900D9241505040D8F708950F931F937F
:10205000CF93DF938230910510F482E090E0E0911D
:102060002009F091210920E030E0A0E0B0E03097B5
:1020700019F1408151810281138148175907C8F035
:102080008417950769F4109731F012960C93129704
:1020900013961C9327C0009320091093210922C096
:1020A0002115310519F04217530718F49A01BD01A3
:1020B000EF01DF01F801DBCF21153105F9F0281B15
:1020C000390B2430310580F48A819B8161157105BB
:1020D00021F0FB019383828304C0909321098093B4
:1020E0002009FE01329644C0FE01E20FF31F8193E6
:1020F000919322503109398328833AC020911E09D7
:1021000030911F09232B41F420910F0230911002CE
:1021100030931F0920931E0920910D0230910E0269
:102120002115310541F42DB73EB740911102509170
:102130001202241B350BE0911E09F0911F09E217D2
:10214000F307A0F42E1B3F0B2817390778F0AC01DA
:102150004E5F5F4F2417350748F04E0F5F1F5093B7
:102160001F0940931E098193919302C0E0E0F0E0C3
:10217000CF01DF91CF911F910F910895CF93DF93FE
:10218000009709F481C0FC01329713821282A0915A
:102190002009B0912109109781F420813181820FAB
:1021A000931F20911E0930911F092817390751F5F7
:1021B000F0931F09E0931E0967C0ED0120E030E0B5
:1021C000CE17DF0740F44A815B819E01411551051E
:1021D000F1F0EA01F5CFD383C28340815181840FAE
:1021E000951FC817D90759F488819981840F951FC5
:1021F0000296918380838A819B81938382832115B8
:10220000310529F4F0932109E09320093DC0E9014B
:10221000FB83EA8349915991C40FD51FEC17FD0741
:1022200061F480819181840F951F0296E901998361
:102230008883828193819B838A83E0E0F0E0129619
:102240008D919C911397009719F0FD01DC01F7CF58
:102250008D919C9111979D012E5F3F4F820F931F8F
:1022600020911E0930911F092817390769F430970A
:1022700029F4109221091092200902C013821282BF
:10228000B0931F09A0931E09DF91CF910895F89490
:02229000FFCF7E
:1022920068656C6C6F20776F726C6421000000229D
:1022A200098000726F7373657269616C5F6D736729
:1022B200732F52657175657374506172616D0000A0
:1022C2000000008906F903F603F30300000000583A
:1022D200069E039B039803000000003005EA04E712
:1022E20004E40400000000A3010D013B01EF016CB6
:1022F200014A015E01000000008005170795039264
:1023020003000000004D02CE084802000000005603
:102312000542033F033C034D6573736167652066A5
:10232200726F6D206465766963652064726F707088
:1023320065643A206D657373616765206C617267CD
:102342006572207468616E206275666665722E0021
:1023520039393263653861313638376365633863DA
:1023620038626438383365633733636134316431DA
:10237200007374645F6D7367732F537472696E6751
:102382000039663065393862646136353938313939
:10239200383664646635336166613761343065347A
:1023A2003900313161626437333163323539333365
:1023B20032363163643631383362643132643632F4
:1023C200393500726F7373657269616C5F6D736723
:1023D200732F4C6F6700306164353166383866633D
:1023E200343438393266386331303638343037373E
:1023F20036343630303500726F7373657269616CD2
:102402005F6D7367732F546F706963496E666F00F7
:10241200636437313636633734633535326333318B
:1024220031666263633266653561376263323839B9
:10243200007374645F6D7367732F54696D65006315
:0824420068617474657200000A
:00000001FF
