:1000000072C00000A1C000009FC000009DC00000A1
:100010009BC0000099C0000097C0000095C0000080
:1000200093C0000091C000008FC000008DC0000090
:100030008BC0000089C0000087C0000085C00000A0
:1000400083C0000081C000007FC000007DC00000B0
:100050007BC0000079C0000077C000000C94320C17
:1000600073C000000C94A60C0C947C0C6DC00000B6
:100070006BC0000069C0000067C0000065C00000E0
:1000800063C0000061C000005FC000005DC00000F0
:100090005BC0000059C0000057C0000055C0000000
:1000A00053C0000051C000004FC000004DC0000010
:1000B0004BC0000049C0000047C0000045C0000020
:1000C00043C0000041C000003FC000003DC0000030
:1000D0003BC0000039C0000037C0000035C0000040
:1000E00033C00000DC0C11241FBECFEFD1E2DEBF15
:1000F000CDBF00E00CBF13E0A0E0B2E0E2E9F2E225
:1001000000E00BBF02C007900D92A83BB107D9F7E2
:1001100029E0A8EBB3E001C01D92A232B207E1F7DB
:1001200010E0C3E7D0E000E006C021970109802F6E
:10013000FE010E94220FC237D10780E00807A9F70D
:100140000E94A40D0C9447115BCF3FB7F8948091A7
:10015000BD039091BE03A091BF03B091C00326B52B
:10016000A89B05C02F3F19F00196A11DB11D3FBFEF
:10017000BA2FA92F982F8827820F911DA11DB11D7D
:10018000BC01CD0142E0660F771F881F991F4A9579
:10019000D1F708952FB7F8946091B9037091BA031D
:1001A0008091BB039091BC032FBF08950F931F93C1
:1001B000CF93DF93CDB7DEB72A970FB6F894DEBFA3
:1001C0000FBECDBF8C018BE492E09A8389831B82A2
:1001D0001C821D821E821F82188619861A86D801EB
:1001E000ED91FC910190F081E02DAE014F5F5F4FEA
:1001F0006AE070E0C8011995CDDFF801608771876A
:10020000828793872A960FB6F894DEBF0FBECDBFC4
:10021000DF91CF911F910F910895CF92DF92EF92CE
:10022000FF920F931F93CF93DF936C017A018B01A1
:10023000C0E0D0E0CE15DF0581F0D8016D918D01D1
:10024000D601ED91FC910190F081E02DC601199548
:10025000892B11F02196EECF7E01C701DF91CF915E
:100260001F910F91FF90EF90DF90CF900895089528
:1002700080E090E00895FC01538D448D252F30E0FF
:10028000842F90E0821B930B541710F0CF960895A3
:1002900001970895FC01918D828D981761F0828DF0
:1002A000DF01A80FB11D5D968C91928D9F5F9F73AA
:1002B000928F90E008958FEF9FEF0895FC01918D4C
:1002C000828D981731F0828DE80FF11D858D90E0B9
:1002D00008958FEF9FEF0895FC01918D228D892F56
:1002E00090E0805C9F4F821B91098F73992708953E
:1002F00081EC93E0F1DF21E0892B09F420E0822FEB
:100300000895FC01848DDF01A80FB11DA35ABF4FD2
:100310002C91848D90E001968F739927848FA68904
:10032000B7892C93A089B1898C91837080648C9358
:10033000938D848D981306C00288F389E02D808107
:100340008F7D80830895EF92FF920F931F93CF9339
:10035000DF93EC0181E0888F9B8D8C8D981305C015
:10036000E889F989808185FD25C0F62E0B8D10E086
:100370000F5F1F4F0F731127E02E8C8DE8120BC0FB
:100380000FB607FCFACFE889F989808185FFF5CFA0
:10039000CE01B7DFF2CF8B8DFE01E80FF11DE35ADE
:1003A000FF4FF0829FB7F8940B8FEA89FB89808119
:1003B00080620AC09FB7F894EE89FF896083E8895C
:1003C000F98980818370806480839FBF81E090E0A1
:1003D000DF91CF911F910F91FF90EF900895CF93F0
:1003E000DF93EC01888D8823C1F0EA89FB89808145
:1003F00085FD05C0A889B9898C9186FD0EC00FB610
:1004000007FCF5CF808185FFF2CFA889B9898C914F
:1004100085FFEDCFCE0175DFE8CFDF91CF91089555
:1004200080E090E0892B19F063DF811125C080E026
:1004300090E0892B41F080E090E0892B21F00E9430
:10044000000081111CC080E090E0892B41F080E029
:1004500090E0892B21F00E940000811113C080E000
:1004600090E0892BA1F080E090E0892B81F00E9440
:10047000000081110AC008950E940000D8CF0E9498
:100480000000E1CF0E940000EACF0C940000089524
:100490008A579B4FFC0180810895AF92BF92CF9203
:1004A000DF92EF92FF920F931F93CF93DF9300D0D1
:1004B0001F921F92CDB7DEB7643671053CF0FC0188
:1004C000EA57FB4F2081222309F477C0DA017B0130
:1004D0008C01BC01615E7D4FED91FC910190F0813A
:1004E000E02DCA011995680128EEC21A2DEFD20A33
:1004F0002FEFD6012C93F801E75EFD4F2EEF2083FE
:1005000031968083319690833196292F280F20953C
:1005100020833196E0821696FC9245E050E020E080
:1005200030E0DC011696A417B50734F06191260F70
:10053000311D4F5F5F4FF7CF7C01B8E0EB0EF11C30
:10054000800F911FFC01E15EFD4F20952083E1E0CB
:10055000EE16E2E0FE06BCF45601C5018C199D09B9
:100560008E159F056CF5D80112968D919C9113976D
:10057000F50161915F01DC01ED91FC910190F08149
:10058000E02D1995EACF8FE392E09A83898383E087
:100590008B8387E892E09D838C83D801ED91FC9159
:1005A0000190F081E02DAE014F5F5F4F67E070E09A
:1005B000C80119958FEF9FEF04C080E090E001C063
:1005C000C7010F900F900F900F900F90DF91CF9178
:1005D0001F910F91FF90EF90DF90CF90BF90AF9061
:1005E0000895CF92DF92EF92FF92FC011082118268
:1005F00012821382DB0120E030E04D9150E0022EA8
:1006000002C0440F551F0A94E2F7052E000C660B3A
:10061000770BC080D180E280F3804C295D296E2960
:100620007F294083518362837383285F3F4F203249
:10063000310519F7FF90EF90DF90CF900895CF929A
:10064000DF92EF92FF9220E030E06A017B01022E00
:1006500004C0F694E794D794C7940A94D2F7FC01A7
:10066000C192CF01285F3F4F2032310571F7FF90D3
:10067000EF90DF90CF90089580EC92E0089581EEA6
:1006800092E008954F925F926F927F928F929F9225
:10069000AF92BF92EF92FF920F931F93CF93DF938E
:1006A00000D01F92CDB7DEB77C018B01CE01019641
:1006B00098DF89819A81AB81BC814C015D0124E086
:1006C000820E911CA11CB11CA8014D5F5F4FFA0165
:1006D00024E030E02901612C712C481459046A048B
:1006E0007B0428F4618161932F5F3F4FF3CFF801C2
:1006F000E80FF91F1382F7015383428304960F908A
:100700000F900F900F90DF91CF911F910F91FF905D
:10071000EF90BF90AF909F908F907F906F905F9081
:100720004F90089581EF92E0089583E192E008955B
:1007300082E193E0089583E393E008954F925F92FE
:100740006F927F928F929F92AF92BF92EF92FF92A1
:100750000F931F93CF93DF9300D01F92CDB7DEB7D7
:100760007C018B01FB018191BF01F7018283CE01E6
:10077000019637DF89819A81AB81BC814C015D0193
:10078000F5E08F0E911CA11CB11CA8014C5F5F4FBE
:10079000FA0125E030E02901612C712C481459043C
:1007A0006A047B0428F4618161932F5F3F4FF3CF8C
:1007B000F801E80FF91F1482F7015483438305966B
:1007C0000F900F900F900F90DF91CF911F910F918D
:1007D000FF90EF90BF90AF909F908F907F906F9021
:1007E0005F904F90089586E493E0089587E693E044
:1007F00008954F925F926F927F928F929F92AF92E5
:10080000BF92CF92DF92EF92FF920F931F93CF93FD
:10081000DF93CDB7DEB72C970FB6F894DEBF0FBECF
:10082000CDBF7C018B01DB018C9190E0F7019383BC
:10083000828311962C91922B938382836E5F7F4FDC
:10084000CE010196CEDE89809A80AB80BC802401E7
:100850003501F6E04F0E511C611C711C98012B5F95
:100860003F4FF90186E090E0AC0160E070E0441594
:1008700055056605770520F4418141930196F4CF33
:10088000F801E80DF91D1582D70115963C932E93BA
:100890001497B4016A5F7F4F600F711FCE010596F8
:1008A000A0DEBAE08B0E911C4D805E806F80788454
:1008B000A401092C000C660B770B440D551D661D19
:1008C000771DD801A80DB91DCD01801B910B5C01CE
:1008D000C12CD12CA416B506C606D70628F48D91D6
:1008E000FD0132978083F0CF5401A40CB51CB801F0
:1008F0006A0D7B1DFB0131971082C4010197800FA7
:10090000911FF70197838683CE0109966ADE9501D0
:100910002C5F3F4F89859A85AB85BC852901032EC5
:10092000000C66087708480E591E6A1E7B1EF501EA
:100930003396E00FF11FA9014A01A12CB12C8414B8
:100940009504A604B70428F4618161934F5F5F4F5B
:10095000F3CF820F931FF801E80FF91FDF01119702
:100960001C9221503109020F131FD70119961C93B5
:100970000E9318972181428150E060E070E0BA0147
:1009800055274427522B2081422B2381722BF701BC
:10099000428753876487758704962C960FB6F89420
:1009A000DEBF0FBECDBFDF91CF911F910F91FF90A2
:1009B000EF90DF90CF90BF90AF909F908F907F90FF
:1009C0006F905F904F90089580E893E0089581EADA
:1009D00093E00895FC01DB014C9150E060E070E091
:1009E000428353836483758311968C911197582B9E
:1009F000428353836483758312968C911297682B7C
:100A0000428353836483758313968C911397782B59
:100A1000428353836483758314964C91149750E0FA
:100A200060E070E0468357836087718715968C91EC
:100A30001597582B468357836087718716968C913C
:100A40001697682B468357836087718717968C911A
:100A5000782B468357836087718788E090E00895FC
:100A6000DC01FB0112968C911297808313968C9176
:100A70001397818314968C911497828315968C9189
:100A80001597838316968C911697848317968C916D
:100A90001797858318968C911897868319968C9151
:100AA000878388E090E008950E941910EF92FF92EA
:100AB0000F931F93CF93DF937C018B01DC01129680
:100AC000ED91FC911397EF0109900020E9F7219730
:100AD000CE1BDF0BAE0160E070E0C801B0DDF701B6
:100AE00062817381AE01C80104960E941D10CE017F
:100AF0000496DF91CF911F910F91FF90EF90089591
:100B00004F925F926F927F92AF92BF92CF92DF929D
:100B1000EF92FF920F931F93CF93DF93EC018B0122
:100B20008A81FB0180838B8181838C8182838D818B
:100B30008383DB0140E050E0BA01E4E0F0E014968A
:100B4000CA80DB80EC80FD80CF0104964C155D05EA
:100B50006E057F05C8F42A853B85E20FF31F3497A5
:100B6000D080F18032812381DC921196FC92119722
:100B700012963C93129713962C931397FC014F5F98
:100B80005F4F6F4F7F4FDBCF5F01A00EB11E2C85F3
:100B9000F50120832D8521832E8522832F852383B4
:100BA000D50140E050E0BA01CC84DD84EE84FF84BE
:100BB0009C012C5F3F4F4C155D056E057F05F8F4D9
:100BC000CD018A199B09EC88FD888E0D9F1DFC01C3
:100BD000D080E180F28083811496DC921497159680
:100BE000EC9215971696FC92169717968C9317977A
:100BF000C9014F5F5F4F6F4F7F4F1496D5CFF801FC
:100C0000E80FF91F8E8980838F898183888D828385
:100C1000898D83837901A12CB12C412C512C320177
:100C20008E899F89A88DB98D481659066A067B065C
:100C300078F5EC8DFD8DEA0DFB1DA081B181FD01E4
:100C400001900020E9F731976F01CA1ADB0AA6016B
:100C500060E070E0C8018E0D9F1DF1DCF4E0EF0E46
:100C6000F11CEC8DFD8DEA0DFB1D60817181A601EB
:100C7000C8018E0D9F1D0E941D10EC0CFD1C8FEFF6
:100C8000481A580A680A780AE2E0AE0EB11CC8CFCA
:100C9000C701DF91CF911F910F91FF90EF90DF90EF
:100CA000CF90BF90AF907F906F905F904F900895DE
:100CB000EF92FF920F931F93CF93DF938C017B01F1
:100CC000DC0112962C911297FB012193CF01139610
:100CD000ED91FC911497EF0109900020E9F721971D
:100CE000CE1BDF0BAE0160E070E0A9DCD8011396EB
:100CF0006D917C911497AE01C70105960E941D105D
:100D0000CE010596DF91CF911F910F91FF90EF904B
:100D10000895CF92DF92EF92FF920F931F93CF939C
:100D2000DF937C018B01DC0112968C911297FB0101
:100D3000808313968C91139781831496ED91FC9187
:100D40001597EF0109900020E9F72197CE1BDF0BE3
:100D5000AE0160E070E0C801029671DCD701149624
:100D60006D917C911597AE01C80106960E941D10E9
:100D7000CE010696F701A681B781FD010190002002
:100D8000E9F731976F01CA1ADB0AA60160E070E04B
:100D9000800F911F54DC2A96D70116966D917C9195
:100DA0001797A601C8018C0F9D1F0E941D10CC0D26
:100DB000DD1DD7011896ED91FC911997DF010D907B
:100DC0000020E9F711976D01CE1ADF0AA60160E055
:100DD00070E0C8018C0F9D1F32DC2496F7016085FE
:100DE0007185A601C8018C0F9D1F0E941D10C601B0
:100DF0008C0F9D1FD7011A966C911A971B964C91D8
:100E00001B971C963C911C971D962C91F801E80F9E
:100E1000F91F60834183328323830496DF91CF914E
:100E20001F910F91FF90EF90DF90CF9008952F9238
:100E30003F924F925F926F927F928F929F92AF926A
:100E4000BF92CF92DF92EF92FF920F931F93CF93B7
:100E5000DF93CDB7DEB760970FB6F894DEBF0FBE55
:100E6000CDBF8C016B01DB018D909D90AD90BC904E
:100E7000FC0182819381A481B58188159905AA0519
:100E8000BB0568F4B401660F771F660F771F828574
:100E90009385EFD7D8011B969C938E931A97F801F0
:100EA00082829382A482B5829601812C912C540176
:100EB00044E050E0B8016A5F7F4F2C5F3F4FF8017C
:100EC00082819381A481B581FA0134961F0188162D
:100ED0009906AA06BB0650F5D9011196FC90119708
:100EE00012968C9190E0A0E0B0E0DC019927882771
:100EF0009F29F901F0808F29F380BF29F8018683AB
:100F00009783A087B187DA01A10114978285938521
:100F1000A80FB91F84E0FB0101900D928A95E1F7BB
:100F2000FFEF8F1A9F0AAF0ABF0AC7CF4601840E90
:100F3000951ED4018C9111969C91119712964C900C
:100F40001297512C612C712C320155244424592ABA
:100F5000482A13968C91782A5F01F801848595853B
:100F6000A685B78584159505A605B70568F4B20171
:100F7000660F771F660F771F848995897AD7D80106
:100F800055969C938E935497F801448655866686B1
:100F90007786C401412C512C32019801205F3F4FCC
:100FA000D8011C964D915D916D917C911F97F50133
:100FB0003496441655066606770698F5DC011596B4
:100FC000FC90159716964C91169750E060E070E0F3
:100FD000BA01552744275F291496FC9014974F298E
:100FE0001796FC907F29D80150964D935D936D9391
:100FF0007C9353975F01AC014819590954960D90A1
:10100000BC91A02DA40FB51F44E0F90101900D92F1
:101010004A95E1F7BFEF4B1A5B0A6B0A7B0A04960D
:10102000BFCFD601AA0DBB1D8C9111969C91119733
:1010300012968C901297912CA12CB12C54019924CA
:101040008824992A882A13968C91B82A7F01F8015E
:1010500086899789A08DB18D88159905AA05BB054C
:1010600058F4B401660F771F848D958D02D7D8018F
:101070005D969C938E935C97F801868A978AA08EE2
:10108000B18E212C312C812C912C54019801265E9B
:101090003F4F3A872987F80186899789A08DB18DBE
:1010A00088169906AA06BB0608F05EC0B6016E0D4A
:1010B0007F1DCE01019695DA97012C5F3F4F388B4B
:1010C0002F8749815A816B817C81C901330FAA0B1B
:1010D000BB0B2C013D01440E551E661E771E4B8630
:1010E0005C866D867E8623E0E20EF11CF601EE0D35
:1010F000FF1D2F853889C901A0E0B0E04B845C84D6
:101100006D847E8484159505A605B70528F4A18114
:10111000A1932F5F3F4FEFCF6F847888460D571D07
:10112000F601E40FF51F31971082C30101978C0D72
:101130009D1DD8015B969C938E935A977A015C967D
:10114000ED91FC915D97E20DF31DA985BA858D9116
:101150009C9191838083BFEF8B1A9B0AAB0ABB0AD9
:10116000E2E02E0E311C97CFC70160960FB6F894BF
:10117000DEBF0FBECDBFDF91CF911F910F91FF90CA
:10118000EF90DF90CF90BF90AF909F908F907F9027
:101190006F905F904F903F902F9008952F923F92C5
:1011A0004F925F926F927F928F929F92AF92BF9277
:1011B000CF92DF92EF92FF920F931F93CF93DF9323
:1011C000CDB7DEB7A6970FB6F894DEBF0FBECDBF82
:1011D0008C010E94CA004B015C01980125573B4FCE
:1011E0003E8B2D8BF90180819181A281B381A50174
:1011F0009401281B390B4A0B5B0BDA01C901893FAB
:101200009A42A105B10510F035971082180144E803
:10121000241A4BEF340AD1018D919C91892B79F0DE
:10122000F801E157FB4F80819181A281B38188153C
:101230009905AA05BB0518F4F101118210829801E5
:101240002C573B4F3A8B298BA80140585B4F5C8B46
:101250004B8BC8014896988F8F8BD801AA57BB4FEC
:10126000BC8FAB8FF801EC56FB4FFE8FED8F215FEB
:101270003F4F38A32F8F42505109588B4F878659C3
:101280009B4F9A8F898F1996BAA3A9A3A5019401A0
:101290002C5E3F4F4F4F5F4F2BA33CA34DA35EA34C
:1012A000F80184899589A689B789892B8A2B8B2B8C
:1012B00081F4D80112968D919C911397DC01ED91E8
:1012C000FC910284F385E02D19959C0197FF14C0D1
:1012D00084C20E94CA00DC01CB0188199909AA09BD
:1012E000BB09F801C488D588E688F788C816D906EE
:1012F000EA06FB06F0F698C2A989BA898D919C91FD
:101300001197820F931F8D939C93F101408151811E
:1013100047305105D9F4A98DBA8D8D919C911197C3
:10132000AC014F5F5F4F4D935C93F801E80FF91FDD
:10133000208FEF85F8898081918101979183808347
:10134000892B09F0ADCF88E090E032C041155105FE
:1013500039F52F3F310589F481E090E0F101918367
:1013600080832BA13CA14DA15EA1A9A1BAA12D937F
:101370003D934D935C93139793CF0E94CA00DC0179
:10138000CB0188199909AA09BB0989389341A1059C
:10139000B10508F485CFF801EA57FB4F108244C22B
:1013A00041305105A9F42E3F310531F482E090E03F
:1013B000D1018D939C9374CFF10111821082AB8D7A
:1013C000BC8D8C9181116CCFC8010E94D60068CF72
:1013D0004230510591F4EF85F88931832083A98D3E
:1013E000BA8D1D921C9283E090E0F101918380837D
:1013F000A989BA892D933C9353CF4330510569F4A1
:10140000322F2227EF85F88980819181280F391F9B
:101410003183208384E090E0CBCF4430510579F4D0
:1014200060E071E0BCD48F3F910531F485E090E03D
:10143000F1019183808334CF1182108231CF453006
:10144000510571F4EB89FC893183208386E090E0BB
:10145000D1018D939C93E989FA893183208320CF30
:1014600046305105A9F4322F2227AB89BC898D91D2
:101470009C911197280F391F2D933C9387E090E0A2
:10148000F10191838083AF85B8898D919C9158CF6C
:101490004830510509F004CFF1011182108260E05B
:1014A00071E07DD48F3F910509F0FACEAB89BC89FC
:1014B0008D919C91009709F0C6C0C8010E94D6008A
:1014C00083E392E09A8389831C821B828FEB92E0F4
:1014D0009E838D8398878F839A8789871B861C8636
:1014E0001D861E866801B8EECB1ABBEFDB0A7801B9
:1014F000E6EBEE1AEBEFFE0A412C22E0522E612CB5
:10150000712CD601ED91FC913097A9F184819581E0
:101510009C838B83808191819E838D838281938143
:10152000DC01ED91FC910480F581E02D19959887FF
:101530008F83D601ED91FC9182819381DC01ED9145
:10154000FC910680F781E02D19959A8789874B8653
:101550005C866D867E86D601ED91FC9160857185F5
:10156000D801ED91FC910190F081E02DAE014F5F2B
:101570005F4FC8011995B2E0CB0ED11CEC14FD04ED
:1015800009F0BFCF412C92E0592E612C712CF7014C
:10159000A081B1811097E1F112968D919C911397E2
:1015A0009C838B8314968D919C9115979E838D833C
:1015B000ED91FC9111970480F581E02DCD011995F5
:1015C00098878F83D7018D919C91DC01ED91FC91DF
:1015D0000680F781E02D19959A8789874B865C866E
:1015E0006D867E86D801ED91FC91C080D180F70197
:1015F00080819181DC01ED91FC910280F381E02DED
:101600001995AE014F5F5F4FBC01C801F6011995F6
:10161000F2E0EF0EF11CE214F30409F0B8CFF80188
:10162000EA57FB4F81E08083319680829182A282CB
:10163000B382AD89BE898D929D92AD92BC92139773
:101640008FEF9FEFF6C08A30910509F09CC08BE4C4
:1016500092E09A8389831B821C821D821E821F82D4
:10166000188619861A860E94CA00F801C084D1849F
:10167000E284F3849B01AC012C193D094E095F09FA
:1016800069017A016F89788DCE010196A3D9C701CE
:10169000B60128EE33E040E050E094D3CB80DC800C
:1016A000ED80FE80C20ED31EE41EF51ECB82DC82CE
:1016B000ED82FE829B01AC0160E472E48FE090E079
:1016C0005FD3CF80D884E984FA84DC01CB018C0D10
:1016D0009D1DAE1DBF1D8F839887A987BA870E9465
:1016E000CA00CF80D884E984FA8436E3D31A35E679
:1016F000E30A34ECF30A28EE33E040E050E062D332
:1017000029013A019B01AC0160E472E48FE090E0B2
:1017100037D3A7019601261B370B480B590BCA017B
:10172000B901CB80DC80ED80FE8031E0C31AD108A6
:10173000E108F108A701960124193509460957095E
:1017400029013A0120E03AEC4AE95BE33BD373011B
:101750006201C20ED31EE41EF51ED8011C96CD9266
:10176000DD92ED92FC921F97F801608B718B828B5A
:10177000938B0E94CA00AD89BE896D937D938D9332
:101780009C9313978DCD8630910551F46F89788D98
:101790008D8D9E8D4CDB81E0EF8DF8A1808380CD17
:1017A0008B30910521F4AB8DBC8D1C9279CDFC0161
:1017B000EF53FE4FEE0FFF1FE00FF11F808191816D
:1017C000009709F46DCDDC01ED91FC910190F08161
:1017D000E02D6F89788D199563CDF801EA57FB4F9D
:1017E0008081882321F17801B9E7EB1ABBEFFB0A6E
:1017F000F70180819181A281B381A5019401281B09
:10180000390B4A0B5B0BDA01C901853C9940A105F4
:10181000B10568F0C8010E94D600D7018D929D9253
:10182000AD92BC92139703C08EEF9FEF02C080E091
:1018300090E0A6960FB6F894DEBF0FBECDBFDF9145
:10184000CF911F910F91FF90EF90DF90CF90BF90BD
:10185000AF909F908F907F906F905F904F903F9050
:101860002F9008951F920F920FB60F9211242F936D
:101870003F938F939F93AF93BF938091B9039091C0
:10188000BA03A091BB03B091BC033091B80323E02D
:10189000230F2D3720F40196A11DB11D05C026E8A8
:1018A000230F0296A11DB11D2093B8038093B903A5
:1018B0009093BA03A093BB03B093BC038091BD0384
:1018C0009091BE03A091BF03B091C0030196A11DEA
:1018D000B11D8093BD039093BE03A093BF03B0934B
:1018E000C003BF91AF919F918F913F912F910F9026
:1018F0000FBE0F901F9018951F920F920FB60F9268
:1019000011240BB60F922F933F934F935F936F93D6
:101910007F938F939F93AF93BF93EF93FF9381EC4C
:1019200093E00E948101FF91EF91BF91AF919F9150
:101930008F917F916F915F914F913F912F910F9078
:101940000BBE0F900FBE0F901F9018951F920F9215
:101950000FB60F9211240BB60F922F938F939F9374
:10196000EF93FF93E091D103F091D2038081E09156
:10197000D703F091D80382FD12C090818091DA03E1
:101980008F5F8F732091DB03821751F0E091DA03B0
:10199000F0E0EF53FC4F958F8093DA0301C0808114
:1019A000FF91EF919F918F912F910F900BBE0F9010
:1019B0000FBE0F901F9018951092C4031092C3038E
:1019C00088EE93E0A0E0B0E08093C5039093C60357
:1019D000A093C703B093C80387E592E09093C20336
:1019E0008093C10385EC90E09093CE038093CD0368
:1019F00084EC90E09093D0038093CF0380EC90E050
:101A00009093D2038093D10381EC90E09093D40320
:101A10008093D30382EC90E09093D6038093D50318
:101A200086EC90E09093D8038093D7031092DA036A
:101A30001092DB031092DC031092DD0385E792E045
:101A400090936D0480936C0481EC93E090936F0409
:101A500080936E0480E091EEA0E0B0E0809370048B
:101A600090937104A0937204B09373041092F208DF
:101A700089E692E09093010980930009109202098F
:101A800010920309109204091092050910920B0993
:101A900010920A0910920C0910920D0910920E0969
:101AA00010920F091092150910921409109216093C
:101AB00010921709109218091092190910921D0915
:101AC00010921C09E6EBF8E0A4E8B8E01D921D9224
:101AD000EA17FB07D9F788EE98E0119211928E175A
:101AE0009F07D9F7A4E8B4E0E4E8F6E01D92EA170E
:101AF000FB07E1F7119288E0E438F807D9F7109274
:101B000080041092810410928204109283048FE763
:101B100092E090936904809368048FEB92E0909335
:101B20006B0480936A048FEA93E090935F04809340
:101B30005E0488E694E090936104809360041092C0
:101B40006704109266040895789484B5826084BD19
:101B500084B5816084BD85B5826085BD85B58160B1
:101B600085BD80916E00816080936E00109281002F
:101B700080918100826080938100809181008160EA
:101B800080938100809180008160809380008091AB
:101B9000B10084608093B1008091B0008160809337
:101BA000B0008091910082608093910080919100BB
:101BB000816080939100809190008160809390007B
:101BC0008091A10082608093A1008091A10081603A
:101BD0008093A1008091A00081608093A0008091FB
:101BE0002101826080932101809121018160809395
:101BF00021018091200181608093200180917A00F1
:101C0000846080937A0080917A00826080937A0069
:101C100080917A00816080937A0080917A00806858
:101C200080937A001092C10080E092ECA1E0B0E0D5
:101C30008093700490937104A0937204B093730422
:101C4000E0916E04F0916F04A089B18982E08C93D9
:101C5000A485B5851C92A685B78580E18C93108EEE
:101C6000A489B58986E08C93A289B3898C9180611F
:101C70008C93A289B3898C9188608C93A289B38953
:101C80008C9180688C930288F389E02D80818F7D10
:101C900080831092E9081092E8081092EB081092E5
:101CA000EA081092EF081092EE081092ED081092D8
:101CB000EC08E4E8F8E080E090E021913191232BFA
:101CC000C1F4FC01EE0FFF1FEC57F74F2EE534E097
:101CD0003183208383589F4F9093630480936204E1
:101CE0008CE694E09093650480936404C0E0D2E0B5
:101CF00024C001968931910501F7F8CF0E94A50013
:101D0000DC01CB018C199D09AE09BF09883E9340C7
:101D1000A105B10598F3B1E08B1A9108A108B108AB
:101D200028EEC20E23E0D21EE11CF11C81149104A6
:101D3000A104B10419F70E941002D0936B04C09360
:101D40006A048091640490916504609162047091CA
:101D50006304DC01ED91FC910190F081E02D48E6F7
:101D600054E019958CE694E019DA0E94A5006B0105
:101D70007C0188EE882E83E0982EA12CB12CBECF5A
:101D8000DB018F939F9340D0BF91AF91A29F800DB5
:101D9000911DA39F900DB29F900D1124089597FB64
:101DA000072E16F4009406D077FD08D037D007FC34
:101DB00005D03EF4909581959F4F0895709561955B
:101DC0007F4F0895A1E21A2EAA1BBB1BFD010DC077
:101DD000AA1FBB1FEE1FFF1FA217B307E407F507DB
:101DE00020F0A21BB30BE40BF50B661F771F881FB7
:101DF000991F1A9469F760957095809590959B014D
:101E0000AC01BD01CF01089525D0A59F900DB49FD1
:101E1000900DA49F800D911D11240895AA1BBB1B3A
:101E200051E107C0AA1FBB1FA617B70710F0A61BDA
:101E3000B70B881F991F5A95A9F780959095BC01FB
:101E4000CD010895EE0FFF1F881F8BBF0790F691FD
:101E5000E02D1994A29FB001B39FC001A39F700D04
:101E6000811D1124911DB29F700D811D1124911DA2
:101E700008956F927F928F929F92AF92BF92CF926E
:101E8000DF92EF92FF920F931F93CF93DF93009710
:101E900081F4CB01DF91CF911F910F91FF90EF90D3
:101EA000DF90CF90BF90AF909F908F907F906F907A
:101EB000CDC0FC01E60FF71F9C0122503109E2174B
:101EC000F30708F4A5C0EC01D9010D911C911197FD
:101ED00006171707A8F00530110508F497C0C801C8
:101EE00004978617970708F491C002501109061B42
:101EF000170B019311936D937C93CF013FD186C053
:101F00005B01A01AB10A4C01800E911EA09120091C
:101F1000B0912109612C712CE12CF12C109709F45E
:101F200046C08D919C911197A815B905B1F56C012A
:101F300042E0C40ED11CCA14DB0478F14C018A18AB
:101F40009B08640142E0C40ED11C1296BC9012970B
:101F50001396AC91B5E0CB16D10440F0B282A383C6
:101F600091828082D9016D937C9309C00E5F1F4FCF
:101F7000800F911FF90191838083EB2DFA2FE114DB
:101F8000F10431F0D7011396FC93EE9312973EC003
:101F9000F0932109E093200939C06816790608F406
:101FA0003C017D0112960D90BC91A02DB7CF809180
:101FB0001E0990911F0988169906E1F466167706A6
:101FC000C8F480910D0290910E02009741F48DB7F4
:101FD0009EB74091110250911202841B950BE81795
:101FE000F907B0F4F0931F09E0931E09F90171831A
:101FF00060830CC0CB012AD07C01009749F0A80176
:10200000BE011BD0CE01BAD0C70104C0CE0102C0B0
:1020100080E090E0DF91CF911F910F91FF90EF90C2
:10202000DF90CF90BF90AF909F908F907F906F90F8
:10203000089581E090E0F8942AC1FB01DC0102C020
:1020400001900D9241505040D8F708950F931F937F
:10205000CF93DF938230910510F482E090E0E0911D
:102060002009F091210920E030E0A0E0B0E03097B5
:1020700019F1408151810281138148175907C8F035
:102080008417950769F4109731F012960C93129704
:1020900013961C9327C0009320091093210922C096
:1020A0002115310519F04217530718F49A01BD01A3
:1020B000EF01DF01F801DBCF21153105F9F0281B15
:1020C000390B2430310580F48A819B8161157105BB
:1020D00021F0FB019383828304C0909321098093B4
:1020E0002009FE01329644C0FE01E20FF31F8193E6
:1020F000919322503109398328833AC020911E09D7
:1021000030911F09232B41F420910F0230911002CE
:1021100030931F0920931E0920910D0230910E0269
:102120002115310541F42DB73EB740911102509170
:102130001202241B350BE0911E09F0911F09E217D2
:10214000F307A0F42E1B3F0B2817390778F0AC01DA
:102150004E5F5F4F2417350748F04E0F5F1F5093B7
:102160001F0940931E098193919302C0E0E0F0E0C3
:10217000CF01DF91CF911F910F910895CF93DF93FE
:10218000009709F481C0FC01329713821282A0915A
:102190002009B0912109109781F420813181820FAB
:1021A000931F20911E0930911F092817390751F5F7
:1021B000F0931F09E0931E0967C0ED0120E030E0B5
:1021C000CE17DF0740F44A815B819E01411551051E
:1021D000F1F0EA01F5CFD383C28340815181840FAE
:1021E000951FC817D90759F488819981840F951FC5
:1021F0000296918380838A819B81938382832115B8
:10220000310529F4F0932109E09320093DC0E9014B
:10221000FB83EA8349915991C40FD51FEC17FD0741
:1022200061F480819181840F951F0296E901998361
:102230008883828193819B838A83E0E0F0E0129619
:102240008D919C911397009719F0FD01DC01F7CF58
:102250008D919C9111979D012E5F3F4F820F931F8F
:1022600020911E0930911F092817390769F430970A
:1022700029F4109221091092200902C013821282BF
:10228000B0931F09A0931E09DF91CF910895F89490
:02229000FFCF7E
:1022920068656C6C6F20776F726C6421000000229D
:1022A200098000726F7373657269616C5F6D736729
:1022B200732F52657175657374506172616D0000A0
:1022C2000000008906F903F603F30300000000583A
:1022D200069E039B039803000000003005EA04E712
:1022E20004E40400000000A3010D013B01EF016CB6
:1022F200014A015E01000000008005170795039264
:1023020003000000004D02CE084802000000005603
:102312000542033F033C034D6573736167652066A5
:10232200726F6D206465766963652064726F707088
:1023320065643A206D657373616765206C617267CD
:102342006572207468616E206275666665722E0021
:1023520039393263653861313638376365633863DA
:1023620038626438383365633733636134316431DA
:10237200007374645F6D7367732F537472696E6751
:102382000039663065393862646136353938313939
:10239200383664646635336166613761343065347A
:1023A2003900313161626437333163323539333365
:1023B20032363163643631383362643132643632F4
:1023C200393500726F7373657269616C5F6D736723
:1023D200732F4C6F6700306164353166383866633D
:1023E200343438393266386331303638343037373E
:1023F20036343630303500726F7373657269616CD2
:102402005F6D7367732F546F706963496E666F00F7
:10241200636437313636633734633535326333318B
:1024220031666263633266653561376263323839B9
:10243200007374645F6D7367732F54696D65006315
:0824420068617474657200000A
:020000023000CC
:10E000000D9489F10D94B2F10D94B2F10D94B2F129
:10E010000D94B2F10D94B2F10D94B2F10D94B2F1F0
:10E020000D94B2F10D94B2F10D94B2F10D94B2F1E0
:10E030000D94B2F10D94B2F10D94B2F10D94B2F1D0
:10E040000D94B2F10D94B2F10D94B2F10D94B2F1C0
:10E050000D94B2F10D94B2F10D94B2F10D94B2F1B0
:10E060000D94B2F10D94B2F10D94B2F10D94B2F1A0
:10E070000D94B2F10D94B2F10D94B2F10D94B2F190
:10E080000D94B2F10D94B2F10D94B2F10D94B2F180
:10E090000D94B2F10D94B2F10D94B2F10D94B2F170
:10E0A0000D94B2F10D94B2F10D94B2F10D94B2F160
:10E0B0000D94B2F10D94B2F10D94B2F10D94B2F150
:10E0C0000D94B2F10D94B2F10D94B2F10D94B2F140
:10E0D0000D94B2F10D94B2F10D94B2F10D94B2F130
:10E0E0000D94B2F141546D656761323536300041AF
:10E0F000726475696E6F206578706C6F72657220DE
:10E1000073746B3530305632206279204D4C530099
:10E11000426F6F746C6F616465723E004875683F52
:10E1200000436F6D70696C6564206F6E203D200048
:10E130004350552054797065202020203D20005FF9
:10E140005F4156525F415243485F5F3D2000415658
:10E1500052204C696243205665723D20004743437C
:10E160002056657273696F6E203D20004350552024
:10E1700049442020202020203D20004C6F7720663D
:10E18000757365202020203D20004869676820665F
:10E190007573652020203D200045787420667573D6
:10E1A00065202020203D20004C6F636B2066757336
:10E1B000652020203D20004D617220203720323024
:10E1C000313300312E362E3800342E332E350056A2
:10E1D00023202020414444522020206F7020636F70
:10E1E00064652020202020696E73747275637469E1
:10E1F0006F6E2061646472202020496E74657272B3
:10E20000757074006E6F20766563746F7200726A49
:10E210006D702020006A6D70200057686174207056
:10E220006F72743A00506F7274206E6F7420737541
:10E2300070706F72746564004D7573742062652030
:10E2400061206C6574746572002000577269747483
:10E25000696E672045450052656164696E672045B7
:10E26000450045452065727220636E743D00504F35
:10E27000525400303D5A65726F2061646472003FF1
:10E280003D43505520737461747300403D454550C3
:10E29000524F4D207465737400423D426C696E6B41
:10E2A000204C454400453D44756D70204545505215
:10E2B0004F4D00463D44756D7020464C415348001B
:10E2C000483D48656C70004C3D4C69737420492F83
:10E2D0004F20506F72747300513D51756974005234
:10E2E0003D44756D702052414D00563D73686F7707
:10E2F00020696E7465727275707420566563746FF0
:10E30000727300593D506F727420626C696E6B00BD
:10E310002A0011241FBECFEFD1E2DEBFCDBF01E046
:10E320000CBF12E0A0E0B2E0EEE1FDEF03E00BBFB6
:10E3300002C007900D92A030B107D9F712E0A0E01B
:10E34000B2E001C01D92AE30B107E1F70F9460F367
:10E350000D948DFE01E20EBF0FEF0DBF11241FBE05
:10E360000D9460F30D9400F020E030E040ED57E0B4
:10E3700005C0FA013197F1F72F5F3F4F2817390792
:10E38000C0F308959C01260F311DC901A0E0B0E043
:10E390002F5F3F4FABBFFC018791882361F08093D3
:10E3A000C6008091C00086FFFCCF8091C0008064D1
:10E3B0008093C000EACF08958DE08093C6008091DD
:10E3C000C00086FFFCCF8091C00080648093C000B5
:10E3D0008AE08093C6008091C00086FFFCCF8091C8
:10E3E000C00080648093C00008950F94C2F10F9420
:10E3F000DCF10895FC019081992359F09093C600B7
:10E400008091C00086FFFCCF8091C0008064809323
:10E41000C0003196992379F70895282F982F929567
:10E420009F70892F805D8A3308F0895F8093C600D2
:10E430008091C00086FFFCCF8091C00080648093F3
:10E44000C000822F8F70982F905D9A3308F0995FEB
:10E450009093C6008091C00086FFFCCF8091C000E1
:10E4600080648093C00008959C01FB01853691056E
:10E470001CF46330710594F0C90164E670E00F94F8
:10E480002EFE605D7F4F6093C6008091C00086FFC6
:10E49000FCCF8091C00080648093C0002B30310598
:10E4A00014F43297B4F0C90164E670E00F942EFEC4
:10E4B0006AE070E00F942EFE605D7F4F6093C600AF
:10E4C0008091C00086FFFCCF8091C0008064809363
:10E4D000C000C9016AE070E00F942EFEC0968093E0
:10E4E000C6008091C00086FFFCCF8091C000806490
:10E4F0008093C00008951F93182F8EE692EE60E07F
:10E500000F94C2F11093C6008091C00086FFFCCF2B
:10E510008091C00080648093C0000F94DCF11F9153
:10E5200008952F923F924F925F926F927F928F92B7
:10E530009F92AF92BF92CF92DF92EF92FF920F9392
:10E540001F93DF93CF93CDB7DEB762970FB6F894E2
:10E55000DEBF0FBECDBF382E622ECA01DB015C01CB
:10E560006D01772420E2222E2E010894411C511CBB
:10E570008BC081E0A81680E0B80681E0C80680E084
:10E58000D80628F0C601AA27BB270F940DF2BB2797
:10E59000AD2D9C2D8B2D0F940DF28A2D0F940DF225
:10E5A0002092C6008091C00086FFFCCF8091C00001
:10E5B00080648093C0009DE29093C6008091C0006B
:10E5C00086FFFCCF8091C00080648093C0002092C1
:10E5D000C6008091C00086FFFCCF8091C00080649F
:10E5E0008093C00019828601750188249924A1E0D6
:10E5F0003A1651F03A1620F0B2E03B1661F409C029
:10E600000BBFF701779007C0C7010F9477FE782EF4
:10E6100002C0F7017080872D0F940DF22092C60082
:10E620008091C00086FFFCCF8091C0008064809301
:10E63000C000872D8052F401EF70F0708F3520F408
:10E64000E40DF51D708204C0E40DF51D8EE280839B
:10E650000894E11CF11C011D111D0894811C911CE2
:10E6600090E18916910409F0C2CF80E190E0A0E02A
:10E67000B0E0A80EB91ECA1EDB1E198AC2010F9493
:10E68000FAF10F94DCF16A94662009F072CF629679
:10E690000FB6F894DEBF0FBECDBFCF91DF911F91B3
:10E6A0000F91FF90EF90DF90CF90BF90AF909F9031
:10E6B0008F907F906F905F904F903F902F90089534
:10E6C0002F923F924F925F926F927F928F929F9282
:10E6D000AF92BF92CF92DF92EF92FF920F931F9370
:10E6E000DF93CF93CDB7DEB7CD53D1400FB6F894BB
:10E6F000DEBF0FBECDBF01E20EBF0FEF0DBF94B75F
:10E70000F894A89514BE80916000886180936000A1
:10E7100010926000789493FF05C0E0910002F091A0
:10E7200001021995279A2F9A8091C00082608093E8
:10E73000C00080E18093C40088E18093C1000000A4
:10E74000EE24FF24870144E0A42EB12CCC24DD2448
:10E7500024C0C5010197F1F70894E11CF11C011DCB
:10E76000111D21E2E2162EE4F20620E0020720E06D
:10E77000120718F031E0C32ED12CC801B70127ECE5
:10E780003BE140E050E00F9441FE611571058105C9
:10E79000910519F485B1805885B98091C00087FD35
:10E7A00003C0C114D104A9F2A6014F5F5F4FC25E3E
:10E7B000DE4F59834883CE51D140C25EDE4F8881FF
:10E7C0009981CE51D140019711F00D9410FEC05D9A
:10E7D000DE4F19821882C053D14060E0C15DDE4F28
:10E7E0001882CF52D14088249924C35DDE4F19820C
:10E7F0001882CD52D140C05EDE4F188219821A8233
:10E800001B82C052D140CE5CDE4F188219821A8220
:10E810001B82C253D140EE24FF2487010BBFF701B6
:10E8200007911691C45CDE4F19830883CC53D14005
:10E830000D940BFEC25EDE4F28813981CE51D1404E
:10E840002130310509F52091C600C25EDE4F1982E4
:10E850001882CE51D14022C02F5F3F4F4F4F5F4FA4
:10E86000213082E138078AE7480780E0580780F0C6
:10E87000C45CDE4FE881F981CC53D140EF5FFF4F9C
:10E8800019F0EE27FF27099420E030E040E050E047
:10E890008091C00087FFE0CF2091C600C35DDE4FAE
:10E8A00048815981CD52D1404F5F5F4FC35DDE4FEC
:10E8B00059834883CD52D140213209F063C64A3092
:10E8C000510508F05FC60894811C911C53E0851621
:10E8D000910409F059C600E010E018C081E280936D
:10E8E000C6008091C00086FFFCCF8091C00080648C
:10E8F0008093C0002F5F3F4F2931310579F70F9486
:10E90000DCF10F5F1F4F0530110519F020E030E0FA
:10E91000E5CF10920A0210920B0210920C02109294
:10E920000D02109206021092070210920802109235
:10E930000902109202021092030210920402109235
:10E9400005028FEE90EE60E00F94F5F180E191EE1C
:10E9500060E00F94C2F18091C00087FFFCCF9091DE
:10E96000C600903608F09F759032B8F09093C600BC
:10E970008091C00086FFFCCF8091C00080648093AE
:10E98000C000A0E2A093C6008091C00086FFFCCF2B
:10E990008091C00080648093C000983409F4D7C18E
:10E9A0009934B8F4923409F459C1933458F490333B
:10E9B00019F1903308F4E3C59F33A1F1903409F0C5
:10E9C000DEC5BDC0953409F470C1963409F0D7C5D1
:10E9D00098C1923509F42BC2933538F49C3409F46C
:10E9E000F5C1913509F0CBC518C2963509F445C279
:10E9F000993509F0C4C567C483E792EE62E00F94CD
:10EA0000F5F110920602109207021092080210927D
:10EA1000090210920A0210920B0210920C0210923C
:10EA20000D0213C18FE792EE62E00F94F5F18FEEC5
:10EA300090EE60E00F94F5F181E291EE60E00F94CA
:10EA4000C2F187EB91EE60E00F94F5F180E391EE77
:10EA500060E00F94C2F184EE90EE60E00F94F5F167
:10EA60008FE391EE60E00F94C2F186E090E061E008
:10EA700070E00F9434F20F94DCF18DE591EE60E0DC
:10EA80000F94C2F189EC91EE60E00F94F5F18EE401
:10EA900091EE60E00F94C2F183EC91EE60E00F9490
:10EAA000F5F18CE691EE60E00F94C2F18EE10F94E7
:10EAB0000DF288E90F940DF281E00F940DF20F949E
:10EAC000DCF18BE791EE60E00F94C2F119E0E0E039
:10EAD000F0E010935700E4918E2F0F940DF20F94F5
:10EAE000DCF18AE891EE60E00F94C2F1E3E0F0E03F
:10EAF00010935700E4918E2F0F940DF20F94DCF1D8
:10EB000089E991EE60E00F94C2F1E2E0F0E0109349
:10EB10005700E4918E2F0F940DF20F94DCF188EAE8
:10EB200091EE60E00F94C2F1E1E0F0E01093570045
:10EB30001491812F0F940DF20F94DCF107CF8BE825
:10EB400092EE62E00F94F5F18BE492EE60E00F94A8
:10EB5000F5F10F94DCF100E010E019C0C8016F2D51
:10EB60000F947FFEFF2031F489E492EE60E00F9471
:10EB7000C2F10BC0F092C6008091C00086FFFCCFAE
:10EB80008091C00080648093C0000F5F1F4FC80158
:10EB900081519F41A0E0B0E0ABBFFC01F790BAE229
:10EBA000FB1621F0E2E000301E07C1F60F94DCF105
:10EBB0000F94DCF187E592EE60E00F94F5F10F948D
:10EBC000DCF1CC24DD2400E010E01EC0C8010F946D
:10EBD00077FEF82E882331F489E492EE60E00F94FA
:10EBE000C2F10BC08093C6008091C00086FFFCCFAD
:10EBF0008091C00080648093C000FE1419F00894D6
:10EC0000C11CD11C0F5F1F4FC80181519F41A0E063
:10EC1000B0E0ABBFFC01E790FAE2EF1621F022E092
:10EC20000030120799F60F94DCF10F94DCF182E6C4
:10EC300092EE60E00F94C2F1C60161E070E00F94C3
:10EC400034F20F94DCF10F94DCF110920202109276
:10EC50000302109204021092050278CE89E992EE26
:10EC600062E00F94F5F1279A2F9A16C02F9880E052
:10EC700090E0E0EDF7E03197F1F7019684369105E9
:10EC8000C1F72F9A80E090E0E0EDF7E03197F1F7DF
:10EC9000019684369105C1F78091C00087FFE6CFC9
:10ECA0008091C00087FFFCCF64C485EA92EE62E0E9
:10ECB0000F94F5F140910202509103026091040219
:10ECC0007091050281E020E10F9491F2809102029F
:10ECD00090910302A0910402B091050280509F4FD1
:10ECE000AF4FBF4F8093020290930302A0930402A0
:10ECF000B093050280509041A040B04008F426CE69
:10ED0000A4CF83EB92EE62E00F94F5F140910602FE
:10ED100050910702609108027091090280E020E1A1
:10ED20000F9491F28091060290910702A09108023F
:10ED3000B091090280509F4FAF4FBF4F80930602A2
:10ED400090930702A0930802B0930902FFCD80ECD4
:10ED500092EE62E00F94F5F183E792EE60E00F949B
:10ED6000F5F18FE792EE60E00F94F5F18BE892EE0B
:10ED700060E00F94F5F189E992EE60E00F94F5F10F
:10ED800085EA92EE60E00F94F5F183EB92EE60E09D
:10ED90000F94F5F180EC92EE60E00F94F5F187ECC2
:10EDA00092EE60E00F94F5F188ED92EE60E00F9442
:10EDB000F5F18FED92EE60E00F94F5F18AEE92EEB0
:10EDC00060E00F94F5F183E093EEBDCD87EC92EE19
:10EDD00062E00F94F5F181E40F947BF282E40F94EA
:10EDE0007BF283E40F947BF284E40F947BF285E45E
:10EDF0000F947BF286E40F947BF287E40F947BF20E
:10EE000088E40F947BF28AE40F947BF28BE40F94F6
:10EE10007BF28CE40F947BF299CD88ED92EE62E068
:10EE20000F94F5F1772473948824992409C48FED05
:10EE300092EE62E00F94F5F140910A0250910B02BC
:10EE400060910C0270910D0282E020E10F9491F22A
:10EE500080910A0290910B02A0910C02B0910D02D8
:10EE600080509F4FAF4FBF4F80930A0290930B0289
:10EE7000A0930C02B0930D0269CD8AEE92EE62E08F
:10EE80000F94F5F184EE90EE60E00F94F5F18FECC5
:10EE900091EE60E00F94F5F1662477244301CC5D98
:10EEA000DE4F19821882C452D140D401C301B695F5
:10EEB000A79597958795CA5DDE4F88839983AA8326
:10EEC000BB83C652D140CC5DDE4FA881B981C4520C
:10EED000D1401196CC5DDE4FB983A883C452D14096
:10EEE000CD0162E070E00F9434F2B0E2B093C6005E
:10EEF0008091C00086FFFCCF8091C0008064809329
:10EF0000C000EDE2E093C6008091C00086FFFCCF18
:10EF10008091C00080648093C000F0E2F093C6004E
:10EF20008091C00086FFFCCF8091C00080648093F8
:10EF3000C000CA5DDE4FE880F9800A811B81C6529D
:10EF4000D140BB27A12F902F8F2D0F940DF2CA5DBA
:10EF5000DE4F8881C652D1400F940DF2B0E2FB2EF5
:10EF6000F092C6008091C00086FFFCCF8091C00067
:10EF700080648093C0000DE30093C6008091C000C0
:10EF800086FFFCCF8091C00080648093C00010E2B7
:10EF90001093C6008091C00086FFFCCF8091C00016
:10EFA00080648093C0008BBEF3012791C65DDE4F65
:10EFB0002883CA52D140A22EBB24CC24DD2408943D
:10EFC000611C711C811C911C8BBEF3018791282E42
:10EFD0003324442455240894611C711C811C911C09
:10EFE0008BBEF3013791C55DDE4F3883CB52D140E4
:10EFF0000894611C711C811C911C8BBEF30147910C
:10F00000C45DDE4F4883CC52D140ADEFEA2EAFEF66
:10F01000FA2EAFEF0A2FAFEF1A2F6E0C7F1C801E57
:10F02000911E142D032DF22CEE24EA0CFB1C0C1D5A
:10F030001D1D0F940DF220E22093C6008091C000A8
:10F0400086FFFCCF8091C00080648093C000C65DC5
:10F05000DE4F8881CA52D1400F940DF230E23093D6
:10F06000C6008091C00086FFFCCF8091C000806404
:10F070008093C000C45DDE4F8881CC52D1400F9494
:10F080000DF240E24093C6008091C00086FFFCCFA5
:10F090008091C00080648093C000C55DDE4F888190
:10F0A000CB52D1400F940DF250E25093C6008091A4
:10F0B000C00086FFFCCF8091C00080648093C000B8
:10F0C0008FEFE8168FEFF80680E0080780E018075A
:10F0D00031F484E092EE60E00F94C2F1DFC0D80119
:10F0E000C7018070907CA070B0708050904CA040A0
:10F0F000B040D1F52FEF3FE340E050E0E222F322B1
:10F1000004231523CA5DDE4FA880B980CA80DB8046
:10F11000C652D140AE0CBF1CC01ED11EAA0CBB1CD7
:10F12000CC1CDD1C8EE092EE60E00F94C2F1BB2798
:10F13000A12F902F8F2D0F940DF28E2D0F940DF285
:10F1400030E23093C6008091C00086FFFCCF8091F2
:10F15000C00080648093C0004EE34093C60080915D
:10F16000C00086FFFCCF87C08EE09EEFA0E0B0E03D
:10F17000E822F9220A231B239CE0E91694E9F90608
:10F1800090E0090790E0190709F088C0C45DDE4FE0
:10F19000A881CC52D140EA2EFF2400E010E0102FCD
:10F1A0000F2DFE2CEE24C55DDE4FB881CB52D14031
:10F1B000EB0EF11C011D111DD601C501817090706F
:10F1C000A070B070DC0199278827E80EF91E0A1F8D
:10F1D0001B1F20EF30E040E050E0A222B322C42207
:10F1E000D52241E1AA0CBB1CCC1CDD1C4A95D1F7F1
:10F1F000EA0CFB1C0C1D1D1D81E090E0A0E0B0E0BE
:10F20000282239224A225B2235E1220C331C441C7D
:10F21000551C3A95D1F7E20CF31C041D151D57013E
:10F220006801AA0CBB1CCC1CDD1C85E192EE60E0E1
:10F230000F94C2F1C801AA27BB270F940DF2BB2778
:10F24000A12F902F8F2D0F940DF28E2D0F940DF274
:10F2500090E29093C6008091C00086FFFCCF809121
:10F26000C00080648093C000AEE3A093C60080918C
:10F27000C00086FFFCCF8091C00080648093C000F6
:10F28000C601AA27BB270F940DF2BB27AD2D9C2DDD
:10F290008B2D0F940DF28A2D0F940DF20F94DCF14B
:10F2A000CC5DDE4FE881F981C452D140F99709F471
:10F2B0004DCBF4E0EF2EF12C012D112D6E0C7F1CA7
:10F2C000801E911EF2CD83E093EE62E00F94F5F183
:10F2D0008AE192EE60E00F94C2F18091C00087FF56
:10F2E000FCCF1091C6001F751093C6008091C0001E
:10F2F00086FFFCCF8091C00080648093C0000F9493
:10F30000DCF1812F81548A3108F036C1163409F4BA
:10F3100095C0173490F4133409F44EC0143430F40B
:10F320001134F1F0123409F01DC130C0143409F465
:10F3300059C0153409F016C16BC01A3409F4C4C0A1
:10F340001B3438F4173409F48FC0183409F00AC19B
:10F35000A1C01B3409F4D2C01C3409F003C1E8C0B9
:10F360008FEF81B90DC082B1809582B980E090E0C5
:10F37000E0EDF7E03197F1F70196883C9105C1F790
:10F380008091C00087FFEFCF12B8EFC08FEF84B934
:10F390000DC085B1809585B980E090E0E0EDF7E0A3
:10F3A0003197F1F70196883C9105C1F78091C00033
:10F3B00087FFEFCF15B8D9C08FEF87B90DC088B1DF
:10F3C000809588B980E090E0E0EDF7E03197F1F7C3
:10F3D0000196883C9105C1F78091C00087FFEFCF6F
:10F3E00018B8C3C08FEF8AB90DC08BB180958BB9A7
:10F3F00080E090E0E0EDF7E03197F1F70196883C8E
:10F400009105C1F78091C00087FFEFCF1BB8ADC059
:10F410008FEF8DB90DC08EB180958EB980E090E0F0
:10F42000E0EDF7E03197F1F70196883C9105C1F7DF
:10F430008091C00087FFEFCF1EB897C08FEF80BBD1
:10F440000DC081B3809581BB80E090E0E0EDF7E0F6
:10F450003197F1F70196883C9105C1F78091C00082
:10F4600087FFEFCF11BA81C08FEF83BB0DC084B38C
:10F47000809584BB80E090E0E0EDF7E03197F1F714
:10F480000196883C9105C1F78091C00087FFEFCFBE
:10F4900014BA6BC08FEF809301010FC080910201FD
:10F4A00080958093020180E090E0E0EDF7E03197F5
:10F4B000F1F70196883C9105C1F78091C00087FF64
:10F4C000EDCF1092020151C08FEF809304010FC065
:10F4D0008091050180958093050180E090E0E0ED4A
:10F4E000F7E03197F1F70196883C9105C1F78091DB
:10F4F000C00087FFEDCF1092050137C08FEF8093DA
:10F5000007010FC08091080180958093080180E079
:10F5100090E0E0EDF7E03197F1F70196883C910536
:10F52000C1F78091C00087FFEDCF109208011DC088
:10F530008FEF80930A010FC080910B01809580931B
:10F540000B0180E090E0E0EDF7E03197F1F70196F4
:10F55000883C9105C1F78091C00087FFEDCF1092E4
:10F560000B0103C085E292EEEEC98091C00087FFD7
:10F57000FCCF8091C600EAC988E392EEE4C98CE131
:10F5800091EEE1C988249924933011F1943028F444
:10F59000913089F09230B8F408C0953061F195301F
:10F5A000F0F0963009F048C043C02B3109F042C951
:10F5B00091E06BE13FC96227C15DDE4F2883CF52E6
:10F5C000D14092E037C9B22FA0E0622793E032C960
:10F5D000822F90E0A82BB92B622794E02BC92E3004
:10F5E00009F039C3622795E0C05DDE4F19821882A9
:10F5F000C053D1401FC9E1E0F0E0EC0FFD1FC05D3A
:10F60000DE4F08811981C053D140E00FF11F2083E4
:10F610000F5F1F4FC05DDE4F19830883C053D14079
:10F6200062270A171B0709F005C9D80196E002C92D
:10F63000261709F010C303C0973009F0FBC87724E0
:10F640009981933109F412C19431C8F4963009F4C8
:10F65000D8C0973050F4923009F406C1933009F4C1
:10F660006DC0913009F059C253C0913109F477C08F
:10F67000923108F0BBC0903109F04FC2F5C098310B
:10F6800009F487C0993150F4953109F4EFC09531F0
:10F6900008F4C6C1963109F040C2C2C19A3109F4DA
:10F6A0006CC09A3108F491C09B3109F45BC09D3164
:10F6B00009F033C29D81903359F48F81882311F46E
:10F6C0009EE11CC0813011F091E018C098E916C08D
:10F6D000892F807591F0903539F4E0E0F0E089E011
:10F6E0008093570094910AC0983539F4E3E0F0E034
:10F6F00089E080935700949101C090E01A821B82A8
:10F700008D818C831D829E831F8227E030E009C299
:10F710001A8288E08B8381E48C8386E58D8382E581
:10F720008E8389E48F8383E5888780E589878FE5E9
:10F730008A8782E38B872BE030E0F3C18A818139AD
:10F7400041F0823941F0803911F48FE005C080E04A
:10F7500003C082E001C08AE01A828B8344C0772410
:10F76000739482C08D81882311F48EE12CC0813086
:10F7700011F081E028C088E926C01A82E1E0F0E0BB
:10F7800089E08093570084918B831C8224E030E0D1
:10F79000C8C18B81803589F48C81883039F4E2E0EE
:10F7A000F0E089E08093570084910DC0E0E0F0E044
:10F7B00089E080935700849106C0E3E0F0E089E09F
:10F7C0008093570084911A82DFCF8D81836C99E0FA
:10F7D000E1E0F0E0082E90935700E89507B600FCB2
:10F7E000FDCF1A821B8223E030E09BC180EC8A832C
:10F7F000CE5CDE4F188219821A821B82C253D1401E
:10F800008EC18A8190E0A0E0B0E0582F44273327D2
:10F8100022278B8190E0A0E0B0E0DC0199278827C7
:10F82000282B392B4A2B5B2B8D8190E0A0E0B0E098
:10F83000282B392B4A2B5B2B8C8190E0A0E0B0E089
:10F84000BA2FA92F982F8827282B392B4A2B5B2BCF
:10F85000220F331F441F551FC05EDE4F288339839C
:10F860004A835B83C052D1401A8259C13A81C95C34
:10F87000DE4F3883C753D140CA5CDE4F1882C6536F
:10F88000D1408B81C82EDD24CA5CDE4F488159816E
:10F89000C653D140C42AD52A933109F082C0CE5C28
:10F8A000DE4F88819981AA81BB81C253D1408050AB
:10F8B000904CA340B04030F583E0CE5CDE4FE88052
:10F8C000F9800A811B81C253D140F70100935B008C
:10F8D00080935700E89507B600FCFDCFCE5CDE4F65
:10F8E000088119812A813B81C253D14000501F4FAA
:10F8F0002F4F3F4FCE5CDE4F088319832A833B8313
:10F90000C253D140C05EDE4F488159816A817B81FC
:10F91000C052D140DE011B9631E08C9111962C91A2
:10F9200011971296C75CDE4F2883C953D140C85C3B
:10F93000DE4F1882C853D14090E0C85CDE4FE881AA
:10F94000F981C853D1408E2B9F2B0C01FA01609393
:10F950005B0030935700E89511244E5F5F4F6F4F67
:10F960007F4F0EEFE02E0FEFF02ECE0CDF1CC114F8
:10F97000D10499F685E0C05EDE4F088119812A81A5
:10F980003B81C052D140F80120935B008093570027
:10F99000E89507B600FCFDCF81E180935700E8951C
:10F9A00035C0C05EDE4F88819981AA81BB81C0527B
:10F9B000D140B695A795979587957C018601ABE0D8
:10F9C000AA2EB12CAC0EBD1E0BC0D5016D915D01F0
:10F9D000C7010F947FFE0894E11CF11C01501040F8
:10F9E0000115110591F7A60160E070E0440F551F65
:10F9F000661F771FC05EDE4FE880F9800A811B8199
:10FA0000C052D1404E0D5F1D601F711F1A82C05E33
:10FA1000DE4F488359836A837B83C052D1407FC0C5
:10FA2000FA80C55CDE4FF882CB53D140C65CDE4F16
:10FA30001882CA53D1408B81C82EDD24C65CDE4FAC
:10FA400008811981CA53D140C02AD12A1A828981DA
:10FA5000BE016D5F7F4F843121F59601C05EDE4FA0
:10FA6000E880F9800A811B81C052D1400BBFF701A9
:10FA700087919691DB018C9311969C936E5F7F4FDB
:10FA8000D801C7010296A11DB11DC05EDE4F88835B
:10FA90009983AA83BB83C052D14022503040F1F6F3
:10FAA00036C0C05EDE4F288139814A815B81C052F9
:10FAB000D1400894C108D108760100E010E0089414
:10FAC000C11CD11C0894E11CF11C011D111DE20E8A
:10FAD000F31E041F151F21BDBB27A52F942F832FB5
:10FAE00082BD2F5F3F4F4F4F5F4FF89A80B5DB01CC
:10FAF0008D93BD012E153F054007510761F7C05E8C
:10FB0000DE4F288339834A835B83C052D1409601FC
:10FB10002D5F3F4FFB01108204C080EC8A8322E0FE
:10FB200030E08BE18093C6008091C00086FFFCCF5F
:10FB30008091C00080648093C000C15DDE4FF88179
:10FB4000CF52D140F093C6008091C00086FFFCCF19
:10FB50008091C00080648093C000432F3093C60022
:10FB60008091C00086FFFCCF8091C00080648093AC
:10FB7000C000922F2093C6008091C00086FFFCCF6A
:10FB80008091C00080648093C0008EE08093C600A6
:10FB90008091C00086FFFCCF8091C000806480937C
:10FBA000C00065E1C15DDE4FE880CF52D1406E25D7
:10FBB00069276427FE01319610C090819093C6009A
:10FBC0008091C00086FFFCCF31968091C000806498
:10FBD0008093C0006927215030402115310569F715
:10FBE0006093C6008091C00086FFFCCF8091C0006A
:10FBF00080648093C00085B1805885B9772081F4F6
:10FC0000C15DDE4F0881CF52D1400F5FC15DDE4F35
:10FC10000883CF52D14090E0A0E0B0E00D941AF4F8
:10FC200027982F9880E090E020ED37E0F901319798
:10FC3000F1F7019684369105C9F700008091C00064
:10FC40008D7F8093C00081E180935700E895EE2777
:10FC5000FF270994FFCF90E00D941AF497FB092E2B
:10FC600007260AD077FD04D02ED006D000201AF443
:10FC7000709561957F4F0895F6F7909581959F4F08
:10FC80000895A1E21A2EAA1BBB1BFD010DC0AA1FDD
:10FC9000BB1FEE1FFF1FA217B307E407F50720F0F5
:10FCA000A21BB30BE40BF50B661F771F881F991F70
:10FCB0001A9469F760957095809590959B01AC01B9
:10FCC000BD01CF010895AA1BBB1B51E107C0AA1FAC
:10FCD000BB1FA617B70710F0A61BB70B881F991FED
:10FCE0005A95A9F780959095BC01CD010895F99991
:10FCF000FECF92BD81BDF89A992780B50895262F31
:10FD0000F999FECF1FBA92BD81BD20BD0FB6F89400
:0EFD1000FA9AF99A0FBE01960895F894FFCF63
:040000033000E000E9
:00000001FF
